:020000040000FA
:100000003809002065010000690100006B01000053
:1000100000000000000000000000000000000000E0
:10002000ACFF110B00600000000000006D0100003B
:1000300000000000000000006F01000049100000F7
:1000400061080000750100007701000079010000DF
:100050007B010000CD0800007F010000810100004D
:100060008301000085010000870100008901000074
:100070008B0100008D0100008F0100009101000044
:100080009301000095010000970100009901000014
:100090009B0100009D0100009F010000A1010000E4
:1000A000A3010000A5010000A7010000A9010000B4
:1000B000AD010000B1010000B3010000B501000076
:1000C00000F002F800F03EF80CA030C80838241800
:1000D0002D18A246671EAB4654465D46AC4201D180
:1000E00000F030F87E460F3E0FCCB6460126334274
:1000F00000D0FB1AA246AB46334318478C2D0000B4
:10010000AC2D0000103A02D378C878C1FAD8520753
:1001100001D330C830C101D504680C6070470000BD
:100120000023002400250026103A01D378C1FBD813
:10013000520700D330C100D50B6070471FB51FBDFB
:1001400010B510BD00F06AFA1146FFF7F7FF01F095
:10015000DDF900F082FA03B4FFF7F2FF03BC00F010
:1001600089FA000017480047FEE7FEE7FEE7FEE7D2
:10017000FEE7FEE7FEE7FEE7FEE7FEE7FEE7FEE757
:10018000FEE7FEE7FEE7FEE7FEE7FEE7FEE7FEE747
:10019000FEE7FEE7FEE7FEE7FEE7FEE7FEE7FEE737
:1001A000FEE7FEE7FEE7FEE7FEE70000FEE70000F1
:1001B000FEE7FEE7FEE7000003480449024A044B5D
:1001C00070470000C10000003805002038090020F9
:1001D00038050020002203098B422CD3030A8B42EE
:1001E00011D300239C464EE003460B433CD400222F
:1001F00043088B4231D303098B421CD3030A8B4241
:1002000001D394463FE0C3098B4201D3CB01C01A0E
:10021000524183098B4201D38B01C01A52414309D9
:100220008B4201D34B01C01A524103098B4201D3C7
:100230000B01C01A5241C3088B4201D3CB00C01A34
:10024000524183088B4201D38B00C01A52414308AC
:100250008B4201D34B00C01A5241411A00D20146D1
:100260005241104670475DE0CA0F00D0494203106A
:1002700000D34042534000229C4603098B422DD3B9
:10028000030A8B4212D3FC22890112BA030A8B4261
:100290000CD3890192118B4208D3890192118B42B0
:1002A00004D389013AD0921100E08909C3098B4235
:1002B00001D3CB01C01A524183098B4201D38B0178
:1002C000C01A524143098B4201D34B01C01A52411B
:1002D00003098B4201D30B01C01A5241C3088B4260
:1002E00001D3CB00C01A524183088B4201D38B004B
:1002F000C01A5241D9D243088B4201D34B00C01AD5
:100300005241411A00D20146634652415B101046E9
:1003100001D34042002B00D54942704763465B1031
:1003200000D3404201B50020C046C04602BD704720
:10033000704770470346CA02400D10B510430A15B6
:1003400004D00124E4072043002A05DB0A4CA21A4A
:1003500004D4D040FF2A00DD002010BD4A00002B4D
:1003600001D0012000E00020101801225205D042E7
:10037000F2D8C817C04310BD1E0400001F22030C92
:1003800002D10F22000402D0030E03D004E00020AB
:10039000014670470002083A030F01D10001121F05
:1003A000830F01D18000921E002801DB4000521E05
:1003B000120551184205C012411810467047C10F6E
:1003C000C90700D04042012292071143D6E701211C
:1003D0008907D3E7F0B58B4C0F09254689B0BD439B
:1003E0007BD01D092646AE43FAD00E465E4027401C
:1003F000F60F3E43254071D024012142FBD0FF245B
:10040000AD19A4042D1B039501252D05DB02DB0A84
:10041000C9022B43C90A29431E010901040F130F06
:10042000050121431701880B820391432D098C4656
:10043000A90B1E438A039543B30B9A0396433F09C6
:10044000BA0B9403A74302962E467E430497B64602
:100450004E19D7190C460196544305977E43371B16
:100460007646BF1B3601B646BE0B36190096764659
:10047000BC043719009C01D3641C00946400002F55
:1004800001D001263443029E049F754366467E4395
:100490000496760034196E0034190094029C019E73
:1004A0001C196643751BAE46069465464519059CA6
:1004B00005956C43594375460891691A0191049E4C
:1004C00001465143A41B0491611A009C0791E10667
:1004D00005D061090122114302E072E06EE061097A
:1004E000089D00272C0A2D066918049D7C412A0AC4
:1004F0002D066918019D6241AC0DAD026D18544185
:10050000079A910D920255196141029A6446584327
:100510005443069B059A5A43121A131B9A0E9B01C9
:100520005B187A41010B0005C3185141220A2006CD
:1005300044195A419A4200D2491C0120400281428A
:1005400003D315230226F64302E014230326F643C1
:100550002020C51AA9401746AF40DA400A4320467A
:100560000399D8400914731819055118039A384390
:10057000D2075140AC4009D00122944006D300225A
:10058000401C5141002C01D1400840001E4A9342BA
:1005900012D3012203989206904207DB0520400700
:1005A00009181A480143C012414004E003204007E3
:1005B0000818C10FC907002009B0F0BD0020F107DD
:1005C000FAE705180C464C4111486D42A04115D37D
:1005D00094181A465A410E48644290410ED30120A5
:1005E0004A004005824209D35A00824206D359404C
:1005F000C90F084AC90700201143DDE7002006495A
:10060000DAE700000000FF07FE070000FFFFFF7FA2
:100610000000E0FF0000F07F0000F87F754600F06A
:1006200025F8AE46050069465346C008C000854619
:1006300018B020B5FFF7C0FD60BC00274908B646DA
:100640000026C0C5C0C5C0C5C0C5C0C5C0C5C0C5E1
:10065000C0C5403D49008D46704710B50446C046B0
:10066000C0462046FFF777FD10BD000000487047E8
:10067000D404002001491820ABBEFEE7260002008A
:100680007047026801238B409A4302607047000064
:10069000FFB581B006460D461746504C5049701ABA
:1006A0008E4223D008DC4F48301800280BD001219F
:1006B0000903401A38D10FE001210903401A1FD065
:1006C000401A31D126E001208007806801210843CB
:1006D00089078860414C27E001208007806802215B
:1006E0000843490788603D4C10341DE00120800715
:1006F00080680421084309078860384C203413E0DF
:1007000001208007806808210843C9068860334CAF
:10071000303409E0012080078068102108438906F1
:1007200088602E4C403400BF00BF012300222946C0
:10073000204600F00BFB012F05D170680121A94074
:100740000843706004E070680121A940884370602C
:100750000498012808D1000200590121A94008434A
:10076000FF210131085108E0FF200130005901212B
:10077000A9408843FF21013108510A98012808D176
:10078000400200590121A9400843012149020851B2
:1007900008E00120400200590121A94088430121BD
:1007A000490208510B9801280BD1032000022018A0
:1007B00000680121A940084303210902611808606B
:1007C0000AE003200002201800680121A9408843A4
:1007D000032109026118086005B0F0BD0001005056
:1007E0000030005000F0FFAF026801238B405A40F8
:1007F00002607047026801238B401A430260704711
:1008000010B504210348FFF7F5FF04210148FFF765
:1008100038FF10BD0020005010B503210748FFF736
:10082000E9FF04210548FFF7E5FF03210348FFF72F
:1008300028FF04210148FFF724FF10BD00200050CD
:1008400010B504210548FFF7D5FF03210348FFF742
:1008500018FF03210148FFF7CDFF10BD0020005015
:1008600008B5164800F06EFD002825D01FE0694647
:10087000124800F074FD002819D111480088BE28E4
:1008800002DB00200E4908800E490D4A12880098AC
:1008900088540B480088401C094908800098C1B260
:1008A000064800F06AFD00210748FFF79DFF034856
:1008B00000F04FFD0028DAD008BD00000000015014
:1008C000000000200C0400200040005010B5044837
:1008D00000F07EFC09210348FFF786FF10BD0000F1
:1008E0000070005000200050F8B506460D4617462F
:1008F0000020009045242406FF2D03D901200090FC
:10090000FF3D013D0F2D06D82846800045210906F0
:10091000441826601CE04520000609218901411881
:100920002846103880000C180098012809D120684A
:100930001F2149018843206020687101084320601D
:1009400006E02068400940012060206830432060B4
:10095000394668B200F05EFD68B2002809DB00BFCE
:1009600000BFC206D20E01219140034A116000BFB0
:1009700000BF00BFF8BD000000E100E01CB5002092
:10098000009003460122014601901148FFF780FEC6
:100990000020009003460122082101900D48FFF736
:1009A00077FE0020009003460122092101900948AA
:1009B000FFF76EFE00210648FFF71CFF08210548DF
:1009C000FFF75FFE09210348FFF75BFE1CBD000037
:1009D000004000500020005070B500240CE00025BD
:1009E00006E00020E900074A89180855681CC5B2CE
:1009F000802DF6DB601CC4B2082CF0DB00F0B6F8EA
:100A000070BD00000C000020F7B500257F2801DC38
:100A10003F2900DDFEBD0B46CE17760FF618F61007
:100A20000727BE1BF2B2CE17760FF618F610F600A7
:100A30008E1BF4B207231E1B0123B340DDB2029BC1
:100A4000002B09D0C3000A4E9B199B5C2B43C600A8
:100A5000074FF619B35408E0C300054E9B199B5C81
:100A6000AB43C600024FF619B35400BFD2E70000F3
:100A70000C0000201CB50020009003460122042138
:100A800001903948FFF704FE002000900346012240
:100A9000032101903448FFF7FBFD0021AE2000F058
:100AA00038F90021D52000F034F90021502000F061
:100AB00030F90021A82000F02CF900213F2000F09F
:100AC00028F90021D32000F024F90021084600F085
:100AD00020F90021402000F01CF900218D2000F0B9
:100AE00018F90021142000F014F90021202000F052
:100AF00010F90021022000F00CF90021A12000F0E3
:100B000008F90021C02000F004F90021DA2000F0EB
:100B100000F90021122000F0FCF80021812000F0F3
:100B2000F8F80021EF2000F0F4F80021D92000F0BF
:100B3000F0F80021F12000F0ECF80021DB2000F0BB
:100B4000E8F80021302000F0E4F80021A42000F0B3
:100B5000E0F80021A62000F0DCF80021AF2000F032
:100B6000D8F8FFF739FF1CBD0020005070B50024F5
:100B70001CE02146B031C8B2002100F0CAF80021C3
:100B8000084600F0C6F80021102000F0C2F8002549
:100B900008E0E900074A8918085D012100F0B9F86A
:100BA000681CC5B2802DF4DB601CC4B2082CE0DBED
:100BB00070BD00000C000020FFB585B00F46164642
:100BC0001C4602972046E217520F1218D210E31764
:100BD0005B0F1B18DB10DB000094E31A01D001232C
:100BE00000E00023D2182146E30F5B185B105A4344
:100BF000D2B2019230462038C6B200254EE00C2C0D
:100C000006D10C20704328494018405D049012E042
:100C1000102C05D1300125494018405D04900AE0B0
:100C2000182C06D12420704321494018405D0490BF
:100C300001E009B0F0BD0020039029E08021049874
:100C40000840002805D039460E9A0598FFF7DCFECB
:100C50000AE00E98002801D1012000E000200246A1
:100C600039460598FFF7D0FE04984006000E049020
:100C7000781CC7B20298381AA04205D1029F059885
:100C8000401CC0B2059006E00398401CC0B203901F
:100C900003980828D2DB00BF681CC5B201988542C2
:100CA000ADDB00BFC5E70000C81600003C1B00001C
:100CB0002C210000F8B506460F4615461C4621E0DB
:100CC000E10F091949108022511AB14202DA0026B7
:100CD0003819C7B24020001BB84204DA002006468B
:100CE0000746FFF779FE012000902A78234639460F
:100CF0003046FFF761FF2046E10F091849108919B6
:100D0000CEB26D1C28787E2802DC28782028D7DA1D
:100D1000F8BD70B505460C46FFF77EFD782000F063
:100D20006DF9FFF76DFD002C03D0402000F066F94F
:100D300002E0002000F062F9FFF762FD284600F0B3
:100D40005DF9FFF75DFDFFF77BFD70BD70B5632AB0
:100D50003AD905290FD804688D004E191F25B540D2
:100D6000AC4304601446643C8D004D19AC400568EA
:100D70002C43046028E00B2911D844688D1FAE0075
:100D8000AE191F25B540AC4344601446643C8D1F2A
:100D9000AE00AD19AC4045682C43446014E00F2907
:100DA00012D884680D460C3DAE00AE191F25B54023
:100DB000AC4384601446643C0D460C3DAE00AD1956
:100DC000AC4085682C4384608A4D441BA84279D08E
:100DD00006DC894C0419002C07D0102C61D161E08D
:100DE000102C70D0202CF9D1D0E0072918D8052478
:100DF000240724684E000325B540AC4305252D0784
:100E00002C60632A01D9012400E014464D00AC4057
:100E100005252D072D682C4305252D072C6040E066
:100E20000B291CD80524240764680D46083D6E0074
:100E30000325B540AC4305252D076C60632A01D915
:100E4000012400E014460D46083D6D00AC40052528
:100E50002D076D682C4305252D076C6021E00F29B7
:100E60001FD80524240764680D460C3D6E00AD199B
:100E700008350726AE40B44305252D076C60632A6C
:100E800001D9012400E014460D460C3D6E00AD1959
:100E90000835AC4005252D076D682C4305252D0729
:100EA0006C608EE00F2919D80524240725694E00AF
:100EB0000324B440A543052424072561632A03D9EC
:100EC000012402E00BE046E014464D00AC4005254D
:100ED0002D072D692C4305252D072C6171E0032971
:100EE00018D805242407246A4E000325B540AC43D6
:100EF00005252D072C62632A01D9012400E0144640
:100F00004D00AC4005252D072D6A2C4305252D07E6
:100F10002C621FE007291DD805242407246A0D1F11
:100F20006E00AD1908350726AE40B44305252D07E0
:100F30002C62632A01D9012400E014460D1F6E00C3
:100F4000AD190835AC4005252D072D6A2C43052524
:100F50002D072C6235E0072917D805242407256BB7
:100F60004E000324B440A543052424072563632AC7
:100F700001D9012400E014464D00AC4005252D07A1
:100F80002D6B2C4305252D072C631AE0072917D854
:100F9000184CE03C24684E000325B540AC43154D89
:100FA000E03D2C60632A01D9012400E014464D0085
:100FB000AC40104DE03D2D682C430E4DE03D2C60C3
:100FC00000BF00BF052424020419246801258D40B8
:100FD000AC4305252D0245192C6005242402041973
:100FE00024681D468D402C4305252D0245192C6093
:100FF00070BD00002001005000FFFFAF70B5044637
:1010000000251CE004210F48FFF73BFB8020204017
:10101000002804D003210B48FFF7ECFB03E0032179
:101020000848FFF72EFB04210648FFF7E3FB0421E5
:101030000448FFF726FB6006040E681CC5B2082DA5
:10104000E0DB70BD0020005010B500210348FFF721
:10105000CBFB08210248FFF7C7FB10BD0040005042
:101060000020005010B501208007006804210840CE
:10107000002820D0080700680221084000280CD072
:10108000184800680840002803D01748174908602E
:1010900020E01748154908601CE01248006802214A
:1010A0000840002803D013481049086012E0124895
:1010B0000E4908600EE0012080070068C007C00FDD
:1010C000002803D00C480949086003E07D20000295
:1010D00006490860094905480068FFF77BF8084998
:1010E000086010BD00C00050001BB70004000020C5
:1010F000808D5B00006CDC0200366E0140420F0008
:101100000800002010B501208007806801218905B2
:101110000843090288600220030000F030F9060449
:10112000101C2834404C012080070068042108402E
:10113000002801D000F064FA00F050FA3BE00120F2
:101140008007006804210840002801D000F058FA08
:1011500000F07EFA2FE0012080070068042108409B
:10116000002801D000F04CFA00F05EFA23E00120E4
:101170008007006804210840002801D000F040FAF0
:1011800000F018FA17E001208007006804210840E9
:10119000002801D100F022FA00F032FA0BE0012021
:1011A0008007006804210840002801D100F016FAE9
:1011B00000F060FA00BF00BF002400E0641C034898
:1011C0008442FBD3FFF74EFF10BD00001027000044
:1011D0000E494118002906D00C2908D018290AD038
:1011E000242910D10BE00121094A51630BE00221AF
:1011F000074A516307E00421054A516303E00821CF
:10120000034A516300BF00BF704700000090FFAF6A
:101210004070005070B504460D4616460120800708
:1012200080684021084309068860204600F061F884
:10123000A06806218843A060A06869000843A060F8
:10124000266027482018002806D00C2813D018281C
:1012500022D0242842D130E021484042FFF7B8FF95
:101260002048006B400840001E4908630846006B98
:101270001843086332E01B483438FFF7A9FF1948C8
:10128000006B02218843174908630846006B590028
:1012900008431449086321E012482838FFF798FFF3
:1012A0001048006B042188430E4908630846006B10
:1012B000990008430B49086310E00A481C38FFF7FF
:1012C00087FF0848006B08218843064908630846E1
:1012D000006BD90008430349086300BF00BF70BD1D
:1012E0000090FFAF4070005081680122114381607F
:1012F000704781684908490081607047F8B50E4819
:101300000068FFF764F8044600220C4BFFF762F810
:101310000646FFF70FF80123024600210090084817
:10132000FFF778FF022205215420FFF7DDFA044879
:10133000FFF7DAFFF8BD0000040000200000E03FE6
:101340000070005001468868012292051040800D0F
:10135000704701464868C208012090437047024622
:101360001368D805C00D08600120800218400028CD
:1013700001D0022070470020FCE70160704730B4C4
:101380007446641E2578641CAB4204D3635D5B0025
:10139000E31830BC18471D46F8E7000010B50028D8
:1013A00019DB1A4A03231B02D21883089B00D25868
:1013B0008307DC0EFF23A3409A438B071B0E840791
:1013C000E40EA3401A43114B032424021B19840882
:1013D000A4001A5118E00E4A03071B0F083B9B0894
:1013E0009B00D2588307DC0EFF23A3409A438B0750
:1013F0001B0E8407E40EA3401A43054B0407240F79
:10140000083CA408A4001A5110BD000000E100E04F
:101410001CED00E010B5002819DB1A4A03231B025B
:10142000D21883089B00D2588307DC0EFF23A34009
:101430009A438B071B0E8407E40EA3401A43114BFB
:10144000032424021B198408A4001A5118E00E4A30
:1014500003071B0F083B9B089B00D2588307DC0E39
:10146000FF23A3409A438B071B0E8407E40EA3407F
:101470001A43054B0407240F083CA408A4001A5182
:1014800010BD000000E100E01CED00E000B50346E7
:1014900003E07D20C00000F013F81846591E8BB2FF
:1014A0000028F6D100BD10B5044603E07D20C00041
:1014B000FFF7ECFF2046611E8CB20028F6D110BD6C
:1014C0000146481E0E4A904201D9012070470D483E
:1014D000006848430C4A506100209061012010616F
:1014E00000BF094800690122120410400028F8D00A
:1014F0000548006940084000034A10610020E5E704
:10150000FFFFFF000800002000E000E0FFF7FAFD09
:10151000FFF734FAFFF7AEFAFFF7F0FE00211E489E
:10152000FFF762F908211D48FFF75EF90120FFF778
:10153000BAFF00211848FFF757F908211748FFF7AD
:1015400053F90120FFF7AFFF00211348FFF74CF9D3
:1015500008211248FFF748F911480068C408601EC6
:101560001049884200D90CE0601E0F4948610321F0
:10157000081FFFF713FF00200B498861072008614F
:1015800000BF0C2309A200211020FFF793FBFFF7F7
:10159000EDFA00BFFEE700000040005000200050C0
:1015A00004000020FFFFFF0000E000E04D69616FD4
:1015B00041000000032008490860012080070068FE
:1015C00002210843490708600846006804210843CF
:1015D000090708607047000000C00050012007495B
:1015E00008608007006802218843490708600846B0
:1015F00000680421084309070860704700C00050D4
:101600000120084908628007006840084000012165
:1016100089070860084600680421884309070860B4
:101620007047000000C000500320084908600120F6
:10163000800700680221884349070860084600685F
:1016400004210843090708607047000000C00050EB
:101650000120074908608007006802210843490704
:1016600008600846006804210843090708607047BD
:1016700000C0005010B50023022201210F48FFF7DF
:1016800065FB0023022219460C48FFF75FFB02208E
:101690000B49C861002400E0641C0A488442FBD363
:1016A0000120800700680121084389070860084677
:1016B0000068042188430907086010BD200100501C
:1016C00000C000506656000000000000000000004E
:1016D00000000000000000003F400000000000008B
:1016E00000003000400030004000000009000BC046
:1016F0003D000BC03D00090018C024407FE022409F
:1017000031800000180024C01B000D803240018091
:1017100003801C4027401C800740004010006000F0
:1017200000000000000000000000000000001F801A
:10173000204040200000402020401F80000000008A
:10174000090006001F8006000900000004000400D4
:101750003F80040004000000001000600000000052
:101760000000000004000400040004000400000065
:10177000000000400000000000000000002001C048
:1017800006003800400000001F802040204020401C
:101790001F800000000010403FC00040000000001B
:1017A00018C02140224024401840000010802040F2
:1017B000244024401B80000002000D0011003FC0A7
:1017C000014000003C80244024402440238000004D
:1017D0001F8024402440344003800000300020005B
:1017E00027C03800200000001B80244024402440F3
:1017F0001B8000001C0022C0224022401F800000ED
:101800000000000008400000000000000000000090
:101810000460000000000000000004000A00110045
:10182000208040400900090009000900090000006B
:1018300000004040208011000A0004001800200031
:1018400023402400180000001F802040274029402A
:101850001F400000004007C039000F0001C00040D9
:1018600020403FC0244024401B8000001F802040B7
:10187000204020403080000020403FC020402040D9
:101880001F80000020403FC024402E4030C0000098
:1018900020403FC024402E00300000000F00108088
:1018A000204022403380020020403FC0040004005A
:1018B0003FC02040204020403FC02040204000004A
:1018C0000060202020203FC02000200020403FC09A
:1018D00024400B0030C0204020403FC0204000404A
:1018E000004000C03FC03C0003C03C003FC00000BF
:1018F00020403FC00C4023003FC020001F802040FC
:10190000204020401F80000020403FC02440240091
:10191000180000001F802140214020E01FA000008F
:1019200020403FC02440260019C0004018C0244079
:101930002440224031800000300020403FC0204041
:101940003000000020003F80004000403F80200029
:1019500020003E0001C0070038002000380007C00A
:101960003C0007C038000000204039C0060039C0E4
:10197000204000002000384007C038402000000010
:10198000304021C02640384020C000000000000048
:101990007FE0402040200000000070000C00038029
:1019A000004000000000402040207FE000000000D8
:1019B0000000200040002000000000000010001087
:1019C0000010001000100010000000004000000097
:1019D00000000000000002800540054003C00040F8
:1019E00020003FC00440044003800000000003804A
:1019F00004400440064000000000038004402440EE
:101A00003FC0004000000380054005400340000047
:101A1000000004401FC0244024402000000002E0D9
:101A2000055005500650042020403FC004400400EB
:101A300003C000400000044027C000400000000038
:101A400000100010041027E00000000020403FC0FC
:101A50000140070004C00440204020403FC0004037
:101A60000040000007C0040007C0040003C00000DD
:101A7000044007C00440040003C00040000003808D
:101A80000440044003800000041007F004500440A8
:101A900003800000000003800440045007F00010A1
:101AA000044007C00240040004000000000006409B
:101AB0000540054004C00000000004001F800440F1
:101AC00000400000040007800040044007C00040C0
:101AD0000400070004C0018006000400060001C0E5
:101AE000070001C006000000044006C0010006C057
:101AF000044000000410071004E001800600040008
:101B00000000044005C00640044000000000000042
:101B100004007BE040200000000000000000FFF017
:101B200000000000000040207BE0040000000000F6
:101B30004000800040002000200040000000000025
:101B40000000000000000000000000000000000095
:101B500000001FCC000C0000000000000000080086
:101B6000300060000800300060000000022003FC2C
:101B70001E20022003FC1E200220000000000E1880
:101B800011043FFF10840C78000000000F00108447
:101B90000F3800C0077818840078000000780F84A0
:101BA00010C411240E9800E40084000808006800A6
:101BB00070000000000000000000000000000000B5
:101BC000000007E018182004400200000000400256
:101BD0002004181807E00000000000000240024046
:101BE00001800FF001800240024000000080008070
:101BF00000800FF800800080008000000001000DD0
:101C0000000E000000000000000000000000008046
:101C10000080008000800080008000800000000CB8
:101C2000000C0000000000000000000000000006A2
:101C3000001800600180060018002000000007F076
:101C4000080810041004080807F000000000080449
:101C500008041FFC000400040000000000000E0C3B
:101C600010141024104411840E0C000000000C18F5
:101C700010041104110412880C700000000000E030
:101C80000320042408241FFC0024000000001F98E7
:101C9000108411041104108810700000000007F077
:101CA00008881104110418880070000000001C004E
:101CB000100010FC13001C001000000000000E3883
:101CC00011441084108411440E38000000000700F5
:101CD000088C10441044088807F000000000000041
:101CE0000000030C030C00000000000000000000D6
:101CF000000101060000000000000000000000805C
:101D000001400220041008081004000002200220F4
:101D10000220022002200220022000000000100405
:101D200008080410022001400080000000000E009E
:101D30001200100C106C10800F00000003E00C1853
:101D400013E4142417C4082807D000000004003C42
:101D500003C41C40074000E4001C000410041FFCE6
:101D60001104110411040E880070000003E00C1827
:101D700010041004100410081C10000010041FFCB4
:101D8000100410041004080807F0000010041FFCE1
:101D90001104110417C410040818000010041FFCDB
:101DA0001104110017C010000800000003E00C1817
:101DB0001004100410441C780040000010041FFCA4
:101DC00010840080008010841FFC100400001004A8
:101DD00010041FFC100410040000000000030001A8
:101DE000100110011FFE10001000000010041FFC65
:101DF000110403801464181C1004000010041FFC5C
:101E00001004000400040004000C000010041FFC77
:101E10001F0000FC1F001FFC1004000010041FFC2A
:101E20000C04030000E010181FFC100007F0080865
:101E3000100410041004080807F0000010041FFC30
:101E400010841080108010800F00000007F0081828
:101E500010241024101C080A07F2000010041FFCB4
:101E60001104110011C011300E0C000400000E1CF2
:101E700011041084108410441C3800001800100055
:101E800010041FFC100410001800000010001FF8C0
:101E900010040004000410041FF8100010001E00BD
:101EA00011E0001C007013801C0010001FC0103CCB
:101EB00000E01F0000E0103C1FC000001004180CE0
:101EC000163401C001C01634180C100410001C0098
:101ED000130400FC13041C00100000000804101C74
:101EE0001064108413041C0410180000000000008B
:101EF00000007FFE4002400240020000000030006F
:101F00000C0003800060001C000300000000400281
:101F1000400240027FFE00000000000000000000C0
:101F200020004000400040002000000000010001AF
:101F3000000100010001000100010001000040005B
:101F40004000200000000000000000000000009899
:101F5000012401440144014400FC000410001FFC62
:101F60000088010401040088007000000000007077
:101F700000880104010401040088000000000070D2
:101F800000880104010411081FFC0004000000F88F
:101F9000014401440144014400C800000000010460
:101FA00001040FFC1104110411001800000000D6F8
:101FB00001290129012901C90106000010041FFCA3
:101FC000008401000100010400FC00040000010481
:101FD000190419FC000400040000000000000003C4
:101FE00000010101190119FE0000000010041FFC8E
:101FF0000024004001B4010C0104000000001004A2
:1020000010041FFC0004000400000000010401FC97
:102010000104010001FC0104010000FC010401FCB9
:10202000008401000100010400FC0004000000F82D
:10203000010401040104010400F80000010101FF92
:102040000085010401040088007000000000007099
:10205000008801040104010501FF000101040104DD
:1020600001FC00840104010001800000000000CC9C
:102070000124012401240124019800000000010032
:10208000010007F80104010400000000010001F84C
:10209000000400040004010801FC000401000180A8
:1020A0000170000C001001600180010001F0010CC2
:1020B000003001C00030010C01F0010000000104FB
:1020C000018C00740170018C010400000101018188
:1020D0000171000E00180160018001000000018400
:1020E000010C013401440184010C000000000000D7
:1020F0000000000001003EFC400240020000000021
:1021000000000000FFFF000000000000000040028F
:1021100040023EFC010000000000000000006000E2
:1021200080008000400040002000200000000000EF
:10213000000000000000000000000000000000009F
:10214000000000000000000000000000000000008F
:102150000000000000000000000000000000000F70
:1021600080380FFE380F80380000000000000000AB
:102170000000000000000000000001000006000058
:102180000C00003800003100000600000C00003890
:1021900000003000000000000000000061800067C7
:1021A000F807F98000618000618000618000618033
:1021B0000067F807F980006180000000000000005F
:1021C000000001C0E003E0F00630080418081FFF1B
:1021D000FE040E080787F00381E000000000000005
:1021E00001F000060C00040408060C7001F9C000A0
:1021F0000E00003BE000EC18070808040C18000370
:10220000E00000000001E00007F003F818041C08DB
:1022100004170807E1D003C0E00023B0003C080029
:102220002008000010000000000000010000310044
:10223000003200001C000000000000000000000050
:10224000000000000000000000000000000000008E
:102250000000000000000000000000007F0001FFFF
:10226000C00780F00C0018100004200002000000DD
:102270000000002000021000040C00180780F0018C
:10228000FFC0007F00000000000000000000000010
:102290000000000000000000420000660000660030
:1022A000003C0000180003FFC0001800003C0000C4
:1022B0006600006600004200000000000800000800
:1022C0000000080000080000080001FFC00008002E
:1022D00000080000080000080000080000000000DE
:1022E000000100003100003200001C00000000006E
:1022F00000000000000000000000000000000000DE
:1023000000000000080000080000080000080000AD
:10231000080000080000080000080000080000088D
:10232000000000000000000000000000380000383D
:102330000000380000000000000000000000000065
:102340000000000000000000000000000006000087
:102350001C000070000180000E0000380000C0006A
:102360000700001C0000300000000000000000001A
:102370007F8001FFE003807006001804000804005D
:102380000806001803807001FFE0007F8000000055
:10239000000000000000010008010008010008031F
:1023A000FFF807FFF8000008000008000008000020
:1023B0000000000000000001C03802C0580400986E
:1023C000040118040218040418061C1803F8180164
:1023D000E0F800000000000000000001C0E003C0C1
:1023E000F004000804080804080806180803F41894
:1023F00001E7F00001E00000000000000000000024
:102400000300000D000011000061000081080301BD
:102410000807FFF80FFFF80001080001080000009E
:102420000000000000E007FCD006080806100806BF
:102430001008061008061838060FF00607C000003E
:1024400000000000000000003F8001FFE003843036
:1024500002081804100804100804100807181003D4
:102460000FF00007C000000000000000000003C0E3
:10247000000700000600000600F80607F80618002E
:1024800006E0000700000600000000000000000158
:10249000E1E003F7F0063410041808041808040CEF
:1024A00008040C0806161803F3F001C1E000000050
:1024B00000000000F80003FC3003063804020804A2
:1024C00002080402080404100308F001FFC0007FA2
:1024D00000000000000000000000000000000000FC
:1024E00000000000703800703800703800000000F4
:1024F00000000000000000000000000000000000DC
:102500000000000000000000301A00301C00000035
:1025100000000000000000000000000000000000BB
:1025200000000008000014000022000041000080AC
:102530008001004002002004001008000800000094
:102540000000000021000021000021000021000007
:1025500021000021000021000021000021000021B5
:102560000000000000000000000008000804001047
:102570000200200100400080800041000022000095
:10258000140000080000000000000003C00004C0A8
:1025900000040000080038080F3808083808100048
:1025A0000C300007E00003C0000000000000000045
:1025B0003F8000FFE0038070020F1006708804C0A7
:1025C00088048308047F8802C09003012000FE4035
:1025D0000000080000180001F8003E0801C20007D2
:1025E000020007E20000FE00001FC80001F8000022
:1025F0003800000804000807FFF807FFF80408087F
:1026000004080804080804080806180803F4180158
:10261000E7F00001E0000000000000003F8001FF43
:10262000E003807002001804000804000804000899
:102630000400100600200780C00000000400080706
:10264000FFF807FFF804000804000804000804006D
:102650001802001003807001FFE0007F800000007E
:1026600004000807FFF807FFF80408080408080436
:102670000808040808043E080400080600180100C1
:102680006000000004000807FFF807FFF8040808CE
:10269000040800040800040800043E0006000006C8
:1026A0000000018000000000000000003F8001FFEA
:1026B000E003807006001804000804020804020801
:1026C0000203F00783F00002000002000400080784
:1026D000FFF807FFF80408080008000008000008D9
:1026E0000000080004080807FFF807FFF8040008C6
:1026F00000000000000004000804000804000807AF
:10270000FFF807FFF80400080400080400080000B0
:1027100000000000000000000006000007000001AB
:1027200004000104000104000307FFFE07FFFC048E
:10273000000004000004000004000807FFF807FF81
:10274000F8040C08001800003E0004C7800503C808
:102750000600F80400380400180000080400080708
:10276000FFF807FFF8040008000008000008000058
:1027700008000008000008000018000060000000C9
:1027800004000807FFF807800807FC00007FC0006E
:1027900003F80007C000780007800807FFF807FF6C
:1027A000F804000804000807FFF807000803C00049
:1027B00000E000003800001E000007000001C00417
:1027C00000F007FFF8040000000000007F8001FF18
:1027D000E0038070060018040008040008060018D2
:1027E00003003001FFE0007F8000000004000807C4
:1027F000FFF807FFF80404080404000404000404BC
:1028000000040400060C0003F80001F000000000C2
:10281000000000007F8001FFE00380700600880454
:1028200000880400C806003C03003E01FFE6007F6C
:102830008400000004000807FFF807FFF8040808F8
:10284000040800040C00040F00040BC00610F00381
:10285000F03801E00800000800000001E0F803F093
:1028600030063010041808041808040C08040C087A
:102870000206180207F00781E00000000180000650
:10288000000004000004000004000807FFF807FF30
:10289000F8040008040000040000060000018000A5
:1028A00004000007FFE007FFF00400180000080024
:1028B000000800000800000800000804001007FFDE
:1028C000E004000004000006000007E00007FE002E
:1028D000041FE00001F80000380001E0043E00079A
:1028E000C00006000004000004000007E00007FF2D
:1028F000C0041FF80007C007F80007FF80043FF876
:102900000007C004F80007000004000000000004F5
:10291000000806001807C07805F1C8003E00001F37
:10292000800463E80780F80600180400080000002F
:1029300004000006000007800007E008047C08008F
:102940001FF80007F800180804E008070000060058
:10295000000400000000000100080600380400F830
:102960000403E8040F08047C0805F00807C0080702
:1029700000180400600000000000000000000000DB
:10298000000000000000003FFFFE200002200002C7
:1029900020000220000220000200000000000000D1
:1029A000000008000007000000C00000380000061A
:1029B000000001C000003000000E00000100000017
:1029C0000000000000002000022000022000022081
:1029D00000022000023FFFFE000000000000000097
:1029E00000000000000000000000000000080000DF
:1029F000100000300000200000300000100000082F
:102A000000000000000000000000010000010000C4
:102A100001000001000001000001000001000001B0
:102A200000000100000100000100000100000000A2
:102A30000000000000200000200000100000100036
:102A40000000000000000000000000000000000086
:102A50000000000000F00019F8001B180022080018
:102A60002608002408002410003FF8001FF800008A
:102A70000800001800000004000007FFF80FFFF036
:102A80000018180010080020080020080030180066
:102A90001FF0000FC00000000000000007C0001F72
:102AA000F0001830002008002008002008003C0832
:102AB000001C10000060000000000000000000008A
:102AC00007C0001FF0003818002008002008002070
:102AD0000804101007FFF80FFFF0000010000000BE
:102AE0000000000000000007C0001FF000123000CE
:102AF0002218002208002208003208001E10000ED2
:102B00002000000000000000200000200800200835
:102B100001FFF803FFF80620080420080420080736
:102B2000200003000000000000000000000E000E66
:102B30006E001FF30031B10020B10020B1003191CF
:102B4000001F13002E1E00200E00300000000004A5
:102B5000000807FFF80FFFF8001008002000002011
:102B600000002008003FF8001FF8000008000000E7
:102B700000000000000000200800200800200806D7
:102B80003FF8063FF80000080000080000080000B9
:102B9000000000000000000000000000030000032F
:102BA000002001002001002003063FFE063FFC003C
:102BB000000000000000000000000004000807FF03
:102BC000F80FFFF8000188000300002FC00038F85C
:102BD000002038002008000008000000000000006D
:102BE000000004000804000804000807FFF80FFFB5
:102BF000F8000008000008000008000000000000C5
:102C0000002008003FF8003FF800100800200000F6
:102C10003FF8003FF8001008002000003FF8003F98
:102C2000F8000008000000002008003FF8003FF80E
:102C3000001008001000002000002008003FF800ED
:102C40001FF80000080000000000000007C0000F8F
:102C5000F00018300030080020080020080030087C
:102C6000001830000FF00007C00000000000000056
:102C70002001003FFF003FFF00101100200900204D
:102C800008002008003038001FF0000FC0000000CE
:102C90000000000007C0001FF000381800200800E6
:102CA0002008002009001011001FFF003FFF000056
:102CB00001000000002008002008002008003FF864
:102CC000003FF8000808001008002008002000005D
:102CD0003000003000000000000000000000000C88
:102CE00078001E18003308002308002108002188FE
:102CF0000021980030F00038600000000000000063
:102D0000200000200000200000FFF003FFF800205A
:102D1000080020080020080000300000000000002B
:102D2000000000002000003FF0007FF800001800C5
:102D30000008000008002010003FF8007FF00000AD
:102D400010000000000000002000003000003C00E7
:102D5000003F800023F00000780000700023800016
:102D60003C00003000002000002000003C00003F3C
:102D7000E00023F80000E0002700003E00003FE0F4
:102D80000021F80001E0003E0000200000000000EB
:102D90002008002008003838003E68002780000323
:102DA000C8002CF800383800201800200800000067
:102DB000000000002000003003003C01003F8300C1
:102DC00023EC000070002380003C00002000002065
:102DD000000000000000000000000038080020385B
:102DE0000020F80023E8002F88003E080038080083
:102DF000201800007000000000000000000000002B
:102E0000000000000000000008000014001FF7FC94
:102E1000300006200002000000000000000000005A
:102E20000000000000000000000000000000FFFFA4
:102E3000FF00000000000000000000000000000093
:102E40000000000000002000023000061FF7FC0018
:102E50001400000800000000000000000000000056
:102E600000000000000000180000600000400000AA
:102E700040000020000010000008000004000004D2
:102E800000000C0000100000A82E00000000002030
:102E90000C00000004010000B42E00000C00002013
:102EA0002C090000200100000000000000366E0127
:042EB0001800000006
:04000005000000C136
:00000001FF
