:020000040000FA
:100000006804002065010000690100006B01000028
:1000100000000000000000000000000000000000E0
:10002000ACFF110B00600000000000006D0100003B
:1000300000000000000000006F010000B107000098
:1000400073010000750100007701000079010000D4
:100050007B0100007D0100007F01000081010000A4
:100060008301000085010000870100008901000074
:100070008B0100008D0100008F0100009101000044
:100080009301000095010000970100009901000014
:100090009B0100009D0100009F010000A1010000E4
:1000A000A3010000A5010000A7010000A9010000B4
:1000B000AD010000B1010000B3010000B501000076
:1000C00000F002F800F03EF80CA030C80838241800
:1000D0002D18A246671EAB4654465D46AC4201D180
:1000E00000F030F87E460F3E0FCCB6460126334274
:1000F00000D0FB1AA246AB4633431847F00A000073
:10010000100B0000103A02D378C878C1FAD8520711
:1001100001D330C830C101D504680C6070470000BD
:100120000023002400250026103A01D378C1FBD813
:10013000520700D330C100D50B6070471FB51FBDFB
:1001400010B510BD00F0F6F81146FFF7F7FF00F00C
:1001500061FC00F00EF903B4FFF7F2FF03BC00F0FE
:1001600015F9000017480047FEE7FEE7FEE7FEE747
:10017000FEE7FEE7FEE7FEE7FEE7FEE7FEE7FEE757
:10018000FEE7FEE7FEE7FEE7FEE7FEE7FEE7FEE747
:10019000FEE7FEE7FEE7FEE7FEE7FEE7FEE7FEE737
:1001A000FEE7FEE7FEE7FEE7FEE70000FEE70000F1
:1001B000FEE7FEE7FEE7000003480449024A044B5D
:1001C00070470000C10000006800002068040020A3
:1001D00068000020002203098B422CD3030A8B42C3
:1001E00011D300239C464EE003460B433CD400222F
:1001F00043088B4231D303098B421CD3030A8B4241
:1002000001D394463FE0C3098B4201D3CB01C01A0E
:10021000524183098B4201D38B01C01A52414309D9
:100220008B4201D34B01C01A524103098B4201D3C7
:100230000B01C01A5241C3088B4201D3CB00C01A34
:10024000524183088B4201D38B00C01A52414308AC
:100250008B4201D34B00C01A5241411A00D20146D1
:100260005241104670475DE0CA0F00D0494203106A
:1002700000D34042534000229C4603098B422DD3B9
:10028000030A8B4212D3FC22890112BA030A8B4261
:100290000CD3890192118B4208D3890192118B42B0
:1002A00004D389013AD0921100E08909C3098B4235
:1002B00001D3CB01C01A524183098B4201D38B0178
:1002C000C01A524143098B4201D34B01C01A52411B
:1002D00003098B4201D30B01C01A5241C3088B4260
:1002E00001D3CB00C01A524183088B4201D38B004B
:1002F000C01A5241D9D243088B4201D34B00C01AD5
:100300005241411A00D20146634652415B101046E9
:1003100001D34042002B00D54942704763465B1031
:1003200000D3404201B50020C046C04602BD704720
:1003300070477047754600F025F8AE4605006946DF
:100340005346C008C000854618B020B5FFF734FFFB
:1003500060BC00274908B6460026C0C5C0C5C0C558
:10036000C0C5C0C5C0C5C0C5C0C5403D49008D465B
:10037000704710B50446C046C0462046FFF7EBFE66
:1003800010BD0000004870470800002001491820F7
:10039000ABBEFEE72600020070470000FFB581B04B
:1003A00006460D461746504C5049701A8E4223D0CF
:1003B00008DC4F48301800280BD001210903401AEF
:1003C00038D10FE001210903401A1FD0401A31D162
:1003D00026E00120800780680121084389078860A2
:1003E000414C27E00120800780680221084349072B
:1003F00088603D4C10341DE0012080078068042196
:10040000084309078860384C203413E00120800736
:10041000806808210843C9068860334C303409E0FD
:1004200001208007806810210843890688602E4CCF
:10043000403400BF00BF012300222946204600F0BF
:100440005FF8012F05D170680121A9400843706051
:1004500004E070680121A940884370600498012875
:1004600008D1000200590121A9400843FF210131B0
:10047000085108E0FF20013000590121A9408843BC
:10048000FF21013108510A98012808D14002005982
:100490000121A940084301214902085108E0012037
:1004A000400200590121A940884301214902085115
:1004B0000B9801280BD103200002201800680121AD
:1004C000A940084303210902611808600AE00320DB
:1004D0000002201800680121A94088430321090275
:1004E0006118086005B0F0BD0001005000300050F8
:1004F00000F0FFAF026801238B405A400260704752
:1005000070B5632A3AD905290FD804688D004E19B1
:100510001F25B540AC4304601446643C8D004D1962
:10052000AC4005682C43046028E00B2911D84468CE
:100530008D1FAE00AE191F25B540AC434460144674
:10054000643C8D1FAE00AD19AC4045682C4344603F
:1005500014E00F2912D884680D460C3DAE00AE1988
:100560001F25B540AC4384601446643C0D460C3DE9
:10057000AE00AD19AC4085682C4384608A4D441BA5
:10058000A84279D006DC894C0419002C07D0102C25
:1005900061D161E0102C70D0202CF9D1D0E0072976
:1005A00018D80524240724684E000325B540AC4321
:1005B00005252D072C60632A01D9012400E014468B
:1005C0004D00AC4005252D072D682C4305252D0732
:1005D0002C6040E00B291CD80524240764680D46D4
:1005E000083D6E000325B540AC4305252D076C6022
:1005F000632A01D9012400E014460D46083D6D0030
:10060000AC4005252D076D682C4305252D076C6032
:1006100021E00F291FD80524240764680D460C3DEE
:100620006E00AD1908350726AE40B44305252D07E9
:100630006C60632A01D9012400E014460D460C3D8C
:100640006E00AD190835AC4005252D076D682C43AB
:1006500005252D076C608EE00F2919D80524240785
:1006600025694E000324B440A543052424072561D1
:10067000632A03D9012402E00BE046E014464D0052
:10068000AC4005252D072D692C4305252D072C6130
:1006900071E0032918D805242407246A4E00032595
:1006A000B540AC4305252D072C62632A01D90124EE
:1006B00000E014464D00AC4005252D072D6A2C4363
:1006C00005252D072C621FE007291DD805242407C6
:1006D000246A0D1F6E00AD1908350726AE40B443DD
:1006E00005252D072C62632A01D9012400E0144658
:1006F0000D1F6E00AD190835AC4005252D072D6A7C
:100700002C4305252D072C6235E0072917D8052431
:100710002407256B4E000324B440A5430524240779
:100720002563632A01D9012400E014464D00AC4042
:1007300005252D072D6B2C4305252D072C631AE06D
:10074000072917D8184CE03C24684E000325B54013
:10075000AC43154DE03D2C60632A01D9012400E033
:1007600014464D00AC40104DE03D2D682C430E4D1D
:10077000E03D2C6000BF00BF05242402041924685A
:1007800001258D40AC4305252D0245192C6005241B
:100790002402041924681D468D402C4305252D0292
:1007A00045192C6070BD00002001005000FFFFAF14
:1007B00010B500210348FFF79DFE08210248FFF70E
:1007C00099FE10BD004000500020005010B50120DF
:1007D0008007006804210840002820D0080700682E
:1007E0000221084000280CD0184800680840002862
:1007F00003D017481749086020E0174815490860DA
:100800001CE01248006802210840002803D0134869
:100810001049086012E012480E4908600EE00120FD
:1008200080070068C007C00F002803D00C480949A2
:10083000086003E07D200002064908600949054878
:100840000068FFF7C7FC0849086010BD00C00050F1
:10085000001BB70000000020808D5B00006CDC02F4
:1008600000366E0140420F000400002010B5012048
:1008700080078068012189050843090288600220F9
:10088000030000F059F80604101C2834404C0120E5
:100890008007006804210840002801D000F042F9D8
:1008A00000F02EF93BE00120800700680421084099
:1008B000002801D000F036F900F05CF92FE00120AB
:1008C0008007006804210840002801D000F02AF9C0
:1008D00000F03CF923E00120800700680421084073
:1008E000002801D000F01EF900F0F6F817E0012012
:1008F0008007006804210840002801D100F000F9B9
:1009000000F010F90BE00120800700680421084086
:10091000002801D100F0F4F800F03EF900BF00BF5C
:10092000002400E0641C03488442FBD3FFF74EFF21
:1009300010BD00001027000030B47446641E2578F6
:10094000641CAB4204D3635D5B00E31830BC184702
:100950001D46F8E710B5002819DB1A4A03231B02CD
:10096000D21883089B00D2588307DC0EFF23A340D4
:100970009A438B071B0E8407E40EA3401A43114BC6
:10098000032424021B198408A4001A5118E00E4AFB
:1009900003071B0F083B9B089B00D2588307DC0E04
:1009A000FF23A3409A438B071B0E8407E40EA3404A
:1009B0001A43054B0407240F083CA408A4001A514D
:1009C00010BD000000E100E01CED00E00146481E03
:1009D0000D4A904201D9012070470C4800684843F5
:1009E0000B4A5061002090610520106100BF08484B
:1009F00000690122120410400028F8D00420044AA3
:100A000010610020E8E70000FFFFFF000000002069
:100A100000E000E01CB5FFF729FF0020009003462E
:100A20000122014601902648FFF7B8FC0020009003
:100A300003460122082101902248FFF7AFFC002164
:100A40001F48FFF757FD08211E48FFF753FD1E48BA
:100A5000FFF7BCFF1C48FFF7B9FF1B48FFF7B6FFC5
:100A600000211748FFF746FD08211648FFF742FD11
:100A70001548FFF7ABFF1448FFF7A8FF1248FFF730
:100A8000A5FF00210E48FFF735FD08210D48FFF7AF
:100A900031FD0E480068C408601E0D49884200D927
:100AA0000CE0601E0B4948610321081FFFF752FF4D
:100AB0000020084988610720086100BF00BFFEE7E9
:100AC000004000500020005040420F000000002075
:100AD000FFFFFF0000E000E003200849086001205C
:100AE000800700680221084349070860084600683B
:100AF00004210843090708607047000000C0005047
:100B000001200749086080070068022188434907DF
:100B10000860084600680421084309070860704718
:100B200000C00050012008490862800700684008A2
:100B300040000121890708600846006804218843B5
:100B4000090708607047000000C0005003200849F2
:100B50000860012080070068022188434907086077
:100B60000846006804210843090708607047000030
:100B700000C000500120074908608007006802217A
:100B8000084349070860084600680421084309072C
:100B90000860704700C0005010B5002302220121F8
:100BA0000F48FFF7ADFC0023022219460C48FFF75F
:100BB000A7FC02200B49C861002400E0641C0A481D
:100BC0008442FBD301208007006801210843890784
:100BD000086008460068042188430907086010BDC2
:100BE0002001005000C00050665600000C0C0000B0
:100BF000000000200800000004010000140C0000A8
:100C000008000020600400002001000000366E0192
:040C100018000000C8
:04000005000000C136
:00000001FF
