:020000040000FA
:100000003805002061020000650200006702000060
:1000100000000000000000000000000000000000E0
:10002000ACFF110B0060000000000000690200003E
:1000300000000000000000006B020000111D000025
:1000400061190000710200007302000075020000D7
:1000500077020000790200007B0200007D020000B0
:100060007F02000081020000830200008502000080
:1000700087020000890200008B0200008D02000050
:100080008F02000091020000930200009502000020
:1000900097020000990200009B0200009D020000F0
:1000A0009F020000A1020000A3020000A5020000C0
:1000B000A9020000AD020000AF020000B102000082
:1000C00000F002F800F0BDF80CA030C80838241881
:1000D0002D18A246671EAB4654465D46AC4201D180
:1000E00000F0AFF87E460F3E0FCCB64601263342F5
:1000F00000D0FB1AA246AB46334318471824000031
:1001000038240000103A02D378C878C1FAD85207D0
:1001100001D330C830C101D504680C6070470000BD
:100120000023002400250026103A01D378C1FBD813
:10013000520700D330C100D50B60704710B56E294F
:1001400002D100F04BFA10BD702902D100F08DFBF6
:1001500010BD662902D102F069F910BD652902D1EE
:1001600002F064F910BD672902D102F05FF910BDF9
:10017000612902D1C046C04610BD03681B0A01D3E5
:1001800080231943692902D100F0F2F910BD6429D6
:1001900002D100F0EDF910BD752902D100F0E8F9A7
:1001A00010BD6F2902D100F00BFB10BD782902D1E0
:1001B00000F048FB10BDE92902D100F0A7FA10BDFC
:1001C000E42902D100F0A2FA10BDF52902D100F015
:1001D0009DFA10BDEF2902D100F0FEFA10BDF829FA
:1001E00002D100F03DFB10BD0368DB0901D3802381
:1001F0001943632902D100F0B6FE10BD732902D164
:1002000000F0B9FE10BDE32902D100F0C3FE10BD1D
:10021000F32902D100F0C6FE10BD002010BD1FB5AD
:1002200000F020FF04000020002102F0E9F8401C4B
:1002300060600020002102F0CDF8E0601FBD10B525
:1002400010BD00F0E7FE1146FFF7E9FF01F0F6FFF1
:1002500001F07CFA03B4FFF7F2FF03BC01F0C6FA29
:1002600017480047FEE7FEE7FEE7FEE7FEE7FEE78A
:10027000FEE7FEE7FEE7FEE7FEE7FEE7FEE7FEE756
:10028000FEE7FEE7FEE7FEE7FEE7FEE7FEE7FEE746
:10029000FEE7FEE7FEE7FEE7FEE7FEE7FEE7FEE736
:1002A000FEE7FEE7FEE70000FEE70000FEE7FEE7F0
:1002B000FEE7000003480449024A044B704700006F
:1002C000C10000003801002038050020380100205E
:1002D0007CB51D4616460C00009001D00019401E4A
:1002E000084B7B442A4669460190304600F08FF95E
:1002F000002C054603D06946002000F09BF92846F3
:100300007CBD00005903000030B5441C03E00178B7
:10031000401C00290DD08107F9D10B4BDD0104C829
:10032000D11A91432940FAD0001B0A0603D0C01EFF
:1003300030BD001B30BD0A0401D0801E30BD090253
:10034000FCD0401E30BD0000010101010022030964
:100350008B422CD3030A8B4211D300239C464EE0E0
:1003600003460B433CD4002243088B4231D303099C
:100370008B421CD3030A8B4201D394463FE0C3094E
:100380008B4201D3CB01C01A524183098B4201D366
:100390008B01C01A524143098B4201D34B01C01A51
:1003A000524103098B4201D30B01C01A5241C308C9
:1003B0008B4201D3CB00C01A524183088B4201D338
:1003C0008B00C01A524143088B4201D34B00C01A24
:1003D0005241411A00D201465241104670475DE039
:1003E000CA0F00D04942031000D3404253400022BC
:1003F0009C4603098B422DD3030A8B4212D3FC2265
:10040000890112BA030A8B420CD3890192118B42E3
:1004100008D3890192118B4204D389013AD09211F9
:1004200000E08909C3098B4201D3CB01C01A5241B4
:1004300083098B4201D38B01C01A524143098B427D
:1004400001D34B01C01A524103098B4201D30B0166
:10045000C01A5241C3088B4201D3CB00C01A52418B
:1004600083088B4201D38B00C01A5241D9D2430872
:100470008B4201D34B00C01A5241411A00D20146AF
:10048000634652415B10104601D34042002B00D519
:100490004942704763465B1000D3404201B50020DB
:1004A000C046C04602BD70477047704770B50446ED
:1004B00085690068C10601D5302600E02026C00706
:1004C00007D070BD62683046A1689047206A401C22
:1004D00020626D1EF6D570BD70B504468569007842
:1004E000C00707D170BD6268A16820209047206ACC
:1004F000401C20626D1EF6D570BD09684A0501D505
:1005000040B27047C905FCD500B2704709684A057A
:1005100001D5C0B27047C905FCD580B2704770B52F
:100520000C460546012A05D02878800600D5EA69E0
:10053000002302E0012305E05B1C934202D2E05C51
:100540000028F9D1A869E618C01AA861286AC0185D
:1005500028622846FFF7AAFF04E06A682078A968A5
:10056000641C9047B442F8D32846FFF7B5FF70BD2E
:10057000F7B5002575291068009914A611D0FFF76A
:10058000BCFF002802DA404211A608E00099096881
:100590008A0701D50FA602E0490704D50EA601255A
:1005A00001E0FFF7B3FF009F0024243704E000F0D0
:1005B0001DFD30313955641C0028F8D12B463246D8
:1005C0002146009800F05FFAFEBD00000000000028
:1005D0002D0000002B0000002000000011680268C0
:1005E000006A530501D5087009E0D30501D50880DC
:1005F00005E0130602D5C21705C100E0086001201E
:100600007047000001694A1C02610878704700B514
:100610008FB002910021059105490193794403911E
:1006200011460490684600F02DF90FB000BD00009F
:10063000E5FFFFFF0A681070521C0A6070470CC982
:1006400008399A4202D2531C0B60107070470000A8
:10065000F7B50446154686B02B487844002703C8F2
:100660003E460090019111E007986A467100415A98
:1006700002A800F09BFC411C07D02178890603D515
:10068000E269391891420ED83F18761C207880060E
:1006900002D5E069B84206DDAE42E5DB079871009D
:1006A000405A0028E0D1A069C01BA0612046FFF796
:1006B000FDFE154878445A3803C800900020019187
:1006C00016E041006A460798415A02A800F06EFC05
:1006D0000590401C0AD0002505E0626802A8A168C8
:1006E000405D90476D1C05988542F6D30498401CE8
:1006F000B0420490E5DB206AC01920622046FFF773
:10070000EBFE09B0F0BD0000DE1D0000F7B5D21D04
:100710000025D20815A6D200F52905CA11D0002A55
:1007200005DA00214042914111A60A4608E00099ED
:1007300009688B0701D50FA602E0490701D50EA66F
:1007400001251146009F0024243704E000F05EF9E3
:1007500030323A55641C02460A43F7D12B463246E2
:100760002146009800F08FF9FEBD00000000000057
:100770002D0000002B0000002000000070B5044692
:100780000021243408E05507D2086D0F3035655438
:100790005D072A43DB08491C15461D43F3D1046855
:1007A000002310A2250708D5A40601D4002904D0EF
:1007B000C46901230CA2641EC46100F064F970BD19
:1007C00010B5044621461068FFF7A0FE002302463C
:1007D0002046FFF7D3FF10BDD21DD108C9000CC9B8
:1007E000CCE700000000000030000000F8B50F4624
:1007F0000188090502D5224C7C4402E0204C7C444F
:100800000E3405460021243508E016071209360F7C
:10081000A65D6E541E0732431B09491C16461E4333
:10082000F3D1224604780023240705D5702F06D083
:10083000002901D00223113200F025F9F8BD01236F
:100840001032F9E770B504460D4621461068FFF7EF
:100850005DFE0023024629462046FFF7C7FF70BD14
:10086000D21DD308DB000CCBC0E730B403682024D2
:100870001268234303600823C36130BC0023B5E73B
:10088000481C0000F3B50446002081B020622046D9
:10089000E1688847002872D0252802D06268A168E4
:1008A000ABE0594F00267F442046E1688847202866
:1008B000054608DB312D06D278192038007800284B
:1008C00001D00643F0E7B00701D50420864300209D
:1008D000E0610746A0612A2D0AD0284601F0A6FC57
:1008E000002827D0B8000019303D0090856119E03C
:1008F0000298BA00121902C8916102902046E1687C
:100900008847012F054617D1E06900281FDA20200B
:1009100086431CE000980A218069484300994019E9
:10092000303888612046E1688847054601F07EFC42
:100930000028EFD1012F0AD02E2D08D12046E168E2
:1009400088470546202006437F1C022FC3DBA06991
:10095000002803DA4042A06101200643F00701D0DD
:10096000102086436C2D0BD0682D09D04C2D3CD027
:100970006A2D38D0742D38D07A2D36D016E040E06C
:10098000E1682F4620468847B842054609D16C2FBA
:1009900029D001208002E1680643204688470546A9
:1009A00004E06C2F1DD0FF2001300643002D28D01D
:1009B00028464138192803D80120C00206432035B3
:1009C000204626602946029A1646FFF7B7FB002804
:1009D00010D001280BD0F61DF008C000083002909E
:1009E00055E74020E1E78020D5E70020D3E7361D1A
:1009F00002964CE762682846A1689047206A401C2E
:100A000044E7206AFEBD0000C21B00000B4670B523
:100A1000024689078008084319469D08141AA9410F
:100A200025090807054308092C194841250A01062C
:100A30000D43010A2C194141200C0D0428430D0CD3
:100A400000194D41002140194D41C0086907084374
:100A5000E908840F8D002543840024184D41241992
:100A60006D41121BAB4107E00925ED432C115219D2
:100A700063410024401C61411C460A250026551B89
:100A8000B441F1D270BDFFB504460D4681B02430AB
:100A900000902168880604D51022E0699143216006
:100AA00000E00120A84201DD471B00E00027049878
:100AB000A1697A191018081AA0612078C00602D41A
:100AC0002046FFF7F3FC002608E003986268A1685F
:100AD000805D9047206A401C761C20620498864204
:100AE000F3DB2078C0060AD52046FFF7DFFC06E0DE
:100AF0006268A16830209047206A401C2062384616
:100B00007F1E0028F4DC07E000986268A168405D61
:100B10009047206A401C206228466D1E0028F3DCA6
:100B20002046FFF7D9FC2078000602D5022005B048
:100B3000F0BD0120FBE700007047FFB50C461E46E4
:100B40008FB003CA089009914F007D0D00D16D1E32
:100B5000002108460020C0460321099A8905084063
:100B6000002A03DA8200801840080840800D01281E
:100B70000A9002DD0020C0430A90089807430DD078
:100B8000F048F149281848430714189800281DD048
:100B90007542291E1DDD0A9842421BE01898012863
:100BA00002D00020302104E00020F24305E021546F
:100BB000401CB042FBDB30460022189B0021215430
:100BC0000F998B600A60486013B0F0BDBD1B6D1CAF
:100BD000DFE70A9A002900DA69420BA800F08AFAD6
:100BE0000BAB07CB03AB07C30899099800F0EEFAEB
:100BF0006B4607C30146D5480918002D00910BDD4F
:100C0000D24903980A9A49424018002303A9039045
:100C1000684600F04BFD08E003990A9A0023081883
:100C200003A90390684600F0EBFC6B4607C3000481
:100C3000000C03D00020C043410800E01046189A81
:100C4000002A03D00022009215461EE0751E05D42E
:100C5000FFF7DCFE303262556D1EF9D501220843E4
:100C6000079602D000227F1C04E02078302801D1B2
:100C700000227F1E002A069787D01EE0112D07DA7A
:100C8000FFF7C4FE303262556D1C02460A43F5D1AF
:100C9000084303D00098002819D00EE00021681EF8
:100CA00005E0235C625C63542254401E491C81426F
:100CB000F7DBA81B401E07950690079A189900209D
:100CC000A0540F98079B069A81600CC07CE7112600
:100CD0000020189059E7D21DF0B50D460446D10802
:100CE00093B0C90003C90C900D9101F011FA0246AE
:100CF0000D98C00F01D02D2007E02068810701D595
:100D00002B2002E04007C00F4001032A0F9001D0C2
:100D1000072A05DB03462946204600F0A7F90EE125
:100D20002078800601D5E76900E006272846652D72
:100D300004D0662814D0672D69D12DE00020112F32
:100D4000009001DB112300E07B1C0CAA03A910A872
:100D5000FFF7F3FE1199002610987D1C0E9142E0DA
:100D600001203B460CAAC0070B900120009003A96C
:100D700010A8FFF7E2FE119D129810990026002896
:100D80000E9501D1781C0D18781B02D446427D1CAB
:100D9000761EE81B00903AE0012F00DA01270020C0
:100DA000112F009001DD112300E03B460CAA03A99E
:100DB00010A8FFF7C2FE11993D46109800260E912B
:100DC000217809070BD40E99A94200DA0D4603A930
:100DD000012D04DD4A19203AD27F302A06D0B842CC
:100DE00001DA011D04DA012100910FE06D1EEFE729
:100DF000002802DC86192D1A03E0411CA94200DDFF
:100E00000D46801B401C00900120C0070B902078ED
:100E1000000705D40098A84202DB0020C0430090E0
:100E200069460020C8720B98012102AF0337C90739
:100E3000884225D0022010902B2011900B9800287A
:100E40000BDA40420B902D20119006E00B9800F039
:100E5000CDF830317F1E0B9039701099481E002953
:100E60001090F3DC0B980028F0D111987F1E387099
:100E70002088000501D5452000E065207F1E3870E0
:100E800001A8C01BC01D0B900F98002800D00120A6
:100E900041190098C01709180B980818A169081A79
:100EA000401EA0612078C00602D42046FFF7FEFA5B
:100EB0000F98002805D06268A1689047206A401CFE
:100EC00020622078C00625D52046FFF7EFFA21E002
:100ED000002E07DB0E98B04204DD03A86268805D37
:100EE000A16802E06268A16830209047206A761C01
:100EF000401C20620098401E002800900AD100F09B
:100F0000B1F8C06862680168405CA1689047206AD7
:100F1000401C206228466D1E0028D9DC07E062686C
:100F20003878A1687F1C9047206A401C20620B998A
:100F3000481E00290B90F2DC2046FFF7CDFA032073
:100F400042E6000001FCFFFF104D0000E1DFFFFF63
:100F500010B54369002B02D0C046C04601E0FFF740
:100F6000DEFA012010BD1278014624310A700022F9
:100F70004A700122ECE711680022D243E8E710B57D
:100F80004369002B02D0C046C04601E0FFF760FB7A
:100F9000012010BD12880146243182840022C284BF
:100FA0000122ECE711680022D243E8E770B516464B
:100FB0000C46054600F04EF80368FF200230C05C86
:100FC000012807D0FF2C0ED8185D00280BD0012077
:100FD0002C7070BDFF333246214608331868C318A1
:100FE0002846984770BD0020C04370BD0146800868
:100FF000081A02091018020A1018020C1018C0086A
:10100000820012185200891A01E0401C0A390A298C
:10101000FBD27047754600F0A1FBAE46050069465D
:101020005346C008C000854618B020B5FFF742F906
:1010300060BC00274908B6460026C0C5C0C5C0C56B
:10104000C0C5C0C5C0C5C0C5C0C5403D49008D466E
:101050007047000010B500F005F8001D10BD00BF7E
:10106000A113000000487047F4000020F8B51F46A7
:10107000044601230068DB02032601461840072AC4
:1010800005DB002801D017A506E017A504E000281D
:1010900001D016A500E016A5102081432160A069AB
:1010A000C01E002FA06101D0401EA0612046FFF7A6
:1010B000FDF9002F09D038466268A1689047206A80
:1010C000401C2062C01C206206E0206AFAE76268C9
:1010D0002878A1686D1C9047761EF8D22046FFF74D
:1010E000FBF9F8BD4E414E006E616E00494E460060
:1010F000696E6600F7B516468AB0334878446C4688
:1011000003467C33C06F5A689B680DC42E487844F0
:10111000763003AC0DC80DC43720C0010818372144
:101120001B30FFF71DF905460C46803D1B3C02D5E0
:101130006442012000E000200027099010E0E00751
:101140000CD00C2020497843794432464C39411860
:101150006846012300F054FA6B4607C364107F1CF5
:10116000002CECD1184F7F442E3F16E0E80712D038
:101170002001C0190EC80691089307920068F0423A
:1011800001D1981908903246012306A903A800F05E
:1011900037FA03AB07C36D10641C002DE6D1099824
:1011A000002806D032466946012303A800F07EFAE3
:1011B00005E001233246694603A800F021FA0A9BA4
:1011C00007C30DB0F0BD00008013000003464000CF
:1011D0000A4610B5400D0BD00121C9070F24A40207
:1011E00000191C0364082143540D2143D20207E077
:1011F00000210120F2E7D40F490021435200401E94
:101200000029F8DADB0FDB07184310BDFFB50D46E8
:10121000144685B04868516800F054FF0091019071
:10122000A868A16800F04EFF02910390A868616869
:1012300000F048FF029A12188242029201D2012065
:1012400000E00020019A0B18D2180028019202D069
:101250008A4202D903E08A4201D2012000E0002044
:101260000099081800906868A16800F02BFF029AA6
:1012700012188242029201D2012000E00020019A5D
:101280000B18D2180028019202D08A4202D903E03A
:101290008A4201D2012000E0002000990818009045
:1012A0002868216840004900400849084018FA4968
:1012B000471814E001994000C90F084300900198B5
:1012C00002994000C90F0843019002980399400019
:1012D000C90F08430290039840007F1E03900098B6
:1012E0000028E7DA0898002801D0EC4E00E000263C
:1012F000B74201DA012000E00020002804902AD043
:10130000F71BF806C00E15D0029B2021091A039A7C
:101310008B401A430392029A019BC2408B401A43AE
:101320000292019A009BC2408B4000991A4301929D
:10133000C14000917B110DD06F460320C11A03D527
:1013400000218200B95003E08A008100BA587A5027
:10135000401EF3D5374603980299002800D001209B
:10136000014308980291002808460CD0002800D0BC
:1013700001200199019A490508430121D20AC902B5
:10138000D202019200E001210E9B0122D207012B23
:1013900002D0002B03D013E0002807D120E09042B8
:1013A00004D890420CD1019B0B4209D0019B5918E3
:1013B000019105D10099491C009101D17F1C009237
:1013C00000280DD0102108460020C04604980028AF
:1013D00006D00F98002803D0082108460020C046F8
:1013E00028682168019B009A4840C10F0598C907E9
:1013F00039430EC009B0F0BDFFB587B0099A08980F
:101400000899536892684068896896460022039359
:1014100017469446089A12685300099A5B081268A6
:10142000520052089A1A9E4BD4180A9A002A01D0E8
:10143000352200E040220692002201231546049244
:10144000DB07059324E0002D05D175460346039E76
:101450004D1BB34109D375466646039B491B049D4A
:101460009841059B7519AC465F4163463B4308D0E4
:10147000059B049EDD0776082E435B0804960593C2
:1014800001E0521E641EC50FED0749184041521C71
:10149000069B9A42D7DB002D04D17546039A6B1A3E
:1014A000824101D203200CE0039A0B466B4042407C
:1014B000134303D0014303D0012002E0022000E0E7
:1014C0000020614601910021009702910A990029AC
:1014D00005D0614640020143704B019102E0800754
:1014E000002302909C4201DA012000E00020070066
:1014F0003AD01A1BD006C00E15D0029D2021019CA7
:10150000091AC5408C402543029C8C4000D0012420
:101510002543019C0295009DC4408D4000992C43B9
:101520000194C140009154111DD06D46022100224A
:1015300002290CD10320001B07E0002804DB8600F1
:10154000AE59002E00D00122401C0328F5DB081BF9
:1015500002D588002A5004E08000285810438A00F1
:10156000A850491EE3D51C460A98002802980CD0C2
:10157000002800D001200199019A49050843012162
:10158000D20AC902D202019200E00121109B01227D
:10159000D207012B02D0002B03D013E0002807D183
:1015A0001FE0904204D890420CD1019B0B4209D01D
:1015B000019B5918019105D10099491C009101D155
:1015C000641C009200280CD0102108460020C04660
:1015D000002F06D01198002803D0082108460020CB
:1015E000C04608980999019A009B0068096848401C
:1015F000C10F0798C907214382600AC00BB0F0BD34
:1016000000B585B0019300920A460146002302A866
:10161000FFF7FCFD02A807C805B000BDFFB50A46EC
:101620001F4685B00799019301230091014602A846
:10163000FFF7ECFD02990398049ECA0F4900D207F8
:1016400000920F22490892028C1A0021002800DB28
:101650000C46450013486D08844214D3079A002AAB
:1016600004DA441E0026104DF64302E004460D46FF
:101670000E46102108460020C046002F03D004214A
:1016800008460020C0462005E90A0843009908439F
:101690006905F20A1143ADE602C0FFFF013C0000FC
:1016A000FF3F0000FF070000FFFFFF7F00B585B090
:1016B000019300920A460146002302A8FFF79CFE10
:1016C00002A807C8A8E7FFB50A461F4685B00799D4
:1016D000019301230091014602A8FFF78DFE0299B4
:1016E0000398049ECA0F4900D20700920F224908AE
:1016F00092028C1A0021002800DB0C46450011489C
:101700006D08844214D3079A002A04DA441E002686
:101710000D4DF64302E004460D460E4610210846E4
:101720000020C046002F03D0042108460020C046F8
:101730002005E90A0843009908436905F20A1143A4
:1017400058E60000FF070000FFFFFF7F10B50446CA
:10175000C046C0462046FEF77DFD10BD00487047DC
:10176000D4000020024670B50A4392072AD11E4DCC
:10177000EE0104C808C9541B9443344017D0D0B2BA
:10178000D9B2401A2106014310D190B299B2401A41
:10179000210401430AD110021902000A090A401A61
:1017A0002102014302D1100E190E401A70BD9A4257
:1017B000DFD010BA19BA884201D9012070BD0020CB
:1017C000C04370BD02780B78401C491C002A09D028
:1017D0009A4207D102780B78401C491C002A01D09C
:1017E0009A42EFD0D01A70BD0101010101491820C1
:1017F000ABBEFEE72600020070470000FFB581B0D7
:1018000006460D461746504C5049701A8E4223D05A
:1018100008DC4F48301800280BD001210903401A7A
:1018200038D10FE001210903401A1FD0401A31D1ED
:1018300026E001208007806801210843890788602D
:10184000414C27E0012080078068022108434907B6
:1018500088603D4C10341DE0012080078068042121
:10186000084309078860384C203413E001208007C2
:10187000806808210843C9068860334C303409E089
:1018800001208007806810210843890688602E4C5B
:10189000403400BF00BF012300222946204600F04B
:1018A000DFF8012F05D170680121A940084370605D
:1018B00004E070680121A940884370600498012801
:1018C00008D1000200590121A9400843FF2101313C
:1018D000085108E0FF20013000590121A940884348
:1018E000FF21013108510A98012808D1400200590E
:1018F0000121A940084301214902085108E00120C3
:10190000400200590121A9408843012149020851A0
:101910000B9801280BD10320000220180068012138
:10192000A940084303210902611808600AE0032066
:101930000002201800680121A94088430321090200
:101940006118086005B0F0BD000100500030005083
:1019500000F0FFAF026801238B405A4002607047DD
:1019600008B5164800F0CAFA002825D01FE06946DD
:10197000124800F064FB002819D111480088BE28E5
:1019800002DB00200E4908800E490D4A128800989B
:1019900088540B480088401C094908800098C1B24F
:1019A000064800F05AFB00210748FFF7D3FF034821
:1019B00000F032FB0028DAD008BD00000000015022
:1019C000000000200C00002000400050F8B5064642
:1019D0000D4617460020009045242406FF2D03D90C
:1019E00001200090FF3D013D0F2D06D828468000C4
:1019F00045210906441826601CE0452000060921FF
:101A0000890141182846103880000C1800980128D8
:101A100009D120681F214901884320602068710195
:101A20000843206006E020684009400120602068EB
:101A300030432060394668B200F0BCFB68B2002831
:101A400009DB00BF00BFC206D20E01219140034A4C
:101A5000116000BF00BF00BFF8BD000000E100E062
:101A600070B5632A3AD905290FD804688D004E193C
:101A70001F25B540AC4304601446643C8D004D19ED
:101A8000AC4005682C43046028E00B2911D8446859
:101A90008D1FAE00AE191F25B540AC4344601446FF
:101AA000643C8D1FAE00AD19AC4045682C434460CA
:101AB00014E00F2912D884680D460C3DAE00AE1913
:101AC0001F25B540AC4384601446643C0D460C3D74
:101AD000AE00AD19AC4085682C4384608A4D441B30
:101AE000A84279D006DC894C0419002C07D0102CB0
:101AF00061D161E0102C70D0202CF9D1D0E0072901
:101B000018D80524240724684E000325B540AC43AB
:101B100005252D072C60632A01D9012400E0144615
:101B20004D00AC4005252D072D682C4305252D07BC
:101B30002C6040E00B291CD80524240764680D465E
:101B4000083D6E000325B540AC4305252D076C60AC
:101B5000632A01D9012400E014460D46083D6D00BA
:101B6000AC4005252D076D682C4305252D076C60BD
:101B700021E00F291FD80524240764680D460C3D79
:101B80006E00AD1908350726AE40B44305252D0774
:101B90006C60632A01D9012400E014460D460C3D17
:101BA0006E00AD190835AC4005252D076D682C4336
:101BB00005252D076C608EE00F2919D80524240710
:101BC00025694E000324B440A5430524240725615C
:101BD000632A03D9012402E00BE046E014464D00DD
:101BE000AC4005252D072D692C4305252D072C61BB
:101BF00071E0032918D805242407246A4E00032520
:101C0000B540AC4305252D072C62632A01D9012478
:101C100000E014464D00AC4005252D072D6A2C43ED
:101C200005252D072C621FE007291DD80524240750
:101C3000246A0D1F6E00AD1908350726AE40B44367
:101C400005252D072C62632A01D9012400E01446E2
:101C50000D1F6E00AD190835AC4005252D072D6A06
:101C60002C4305252D072C6235E0072917D80524BC
:101C70002407256B4E000324B440A5430524240704
:101C80002563632A01D9012400E014464D00AC40CD
:101C900005252D072D6B2C4305252D072C631AE0F8
:101CA000072917D8184CE03C24684E000325B5409E
:101CB000AC43154DE03D2C60632A01D9012400E0BE
:101CC00014464D00AC40104DE03D2D682C430E4DA8
:101CD000E03D2C6000BF00BF0524240204192468E5
:101CE00001258D40AC4305252D0245192C600524A6
:101CF0002402041924681D468D402C4305252D021D
:101D000045192C6070BD00002001005000FFFFAF9E
:101D100010B508210348FFF71DFE00210248FFF718
:101D200019FE10BD002000500040005010B50120E9
:101D30008007006804210840002820D008070068B8
:101D40000221084000280CD01848006808400028EC
:101D500003D017481749086020E017481549086064
:101D60001CE01248006802210840002803D01348F4
:101D70001049086012E012480E4908600EE0012088
:101D800080070068C007C00F002803D00C4809492D
:101D9000086003E07D200002064908600949054803
:101DA0000068FEF7D3FA0849086010BD00C0005073
:101DB000001BB70004000020808D5B00006CDC027B
:101DC00000366E0140420F000800002010B50120CF
:101DD0008007806801218905084309028860022084
:101DE000030000F087F90604101C2834404C012041
:101DF0008007006804210840002801D000F086FA1E
:101E000000F072FA3BE001208007006804210840DE
:101E1000002801D000F07AFA00F0A0FA2FE00120AB
:101E20008007006804210840002801D000F06EFA05
:101E300000F080FA23E001208007006804210840B8
:101E4000002801D000F062FA00F03AFA17E0012011
:101E50008007006804210840002801D100F044FAFE
:101E600000F054FA0BE001208007006804210840CC
:101E7000002801D100F038FA00F082FA00BF00BF5C
:101E8000002400E0641C03488442FBD3FFF74EFFAC
:101E900010BD0000102700000FB410B5B4B000242E
:101EA00037A80090C92101A8009B369AFEF710FAC6
:101EB0000DE02046621CD4B201AA115C0B4800F070
:101EC000CCF800BF094800F0ADF80028FAD1C82CC2
:101ED00004DA01A8FEF718FAA042EAD80020009020
:101EE00034B010BC08BC04B018470000000001501A
:101EF000416801225202914341607047014688685F
:101F0000012292051040800D7047000070B5044614
:101F10000D463E482018002808D001210903401A28
:101F20000DD0401A14D0401A24D11AE001208007A5
:101F300080680121C9020843C90488601AE00120B1
:101F4000800780680121090308438904886011E043
:101F50000120800780680121490308434904886003
:101F600008E00120800780680121890308430904F3
:101F7000886000BF00BF2046FFF7BAFF60680121FC
:101F8000490308436060A068800B8003A060204A7A
:101F9000296812681009FEF7D9F9401EA1680843A4
:101FA000A06060683F2189048843606028798004CC
:101FB0006979C9040843A979890508436168084318
:101FC0006060E06880B2E060E8790004697A090640
:101FD0000843E1680843E06060680002000A60604E
:101FE0006068E97A0906084360606068094908404A
:101FF0006060287A0001A97A89000843297B890357
:10200000084361680843606070BD00000000FFAFD6
:1020100004000020EBBFFFFF01464868C208012012
:102020009043704701464868C007C00F01225040E6
:1020300070474168012252021143416070470246D5
:102040001368D805C00D08600120800218400028E0
:1020500001D0022070470020FCE7016070470000BB
:102060001FB504460123642200211448FFF7F8FC41
:102070000023652201211148FFF7F2FC00940021A2
:1020800068460171417181710321C17101210172A1
:1020900003214172002181720A21C1720021017362
:1020A00069460748FFF732FF012200215820FFF759
:1020B0008DFC0348FFF7BDFF1FBD0000000100506D
:1020C00000000150F8B5040C8BB2264682B25E4384
:1020D000104658430D0C370C360400218019164663
:1020E00079416E43370C36048019264679416E4398
:1020F0008919F8BD30B47446641E2578641CAB425F
:1021000004D3635D5B00E31830BC18471D46F8E755
:102110004900CA020243100000D004204A0D01D039
:1021200001221043044A490D914201D10221084382
:10213000012800D105207047FF07000010B50028D6
:1021400019DB1A4A03231B02D21883089B00D258BA
:102150008307DC0EFF23A3409A438B071B0E8407E3
:10216000E40EA3401A43114B032424021B198408D4
:10217000A4001A5118E00E4A03071B0F083B9B08E6
:102180009B00D2588307DC0EFF23A3409A438B07A2
:102190001B0E8407E40EA3401A43054B0407240FCB
:1021A000083CA408A4001A5110BD000000E100E0A2
:1021B0001CED00E010B5002819DB1A4A03231B02AE
:1021C000D21883089B00D2588307DC0EFF23A3405C
:1021D0009A438B071B0E8407E40EA3401A43114B4E
:1021E000032424021B198408A4001A5118E00E4A83
:1021F00003071B0F083B9B089B00D2588307DC0E8C
:10220000FF23A3409A438B071B0E8407E40EA340D1
:102210001A43054B0407240F083CA408A4001A51D4
:1022200010BD000000E100E01CED00E030380A289D
:1022300001D2012070470020704700001CB5FFF755
:10224000C5FDE1204002FFF70BFF16A0FFF724FEBB
:102250000020009003460122082101901348FFF757
:10226000CDFA00200090034601220146019010485B
:10227000FFF7C4FA0F480068C408601E0E49884280
:1022800000D90CE0601E0D4948610321081FFFF7CB
:1022900055FF0020094988610720086100BF00BF81
:1022A000FEE700004D69616F410000000020005012
:1022B0000040005004000020FFFFFF0000E000E0AD
:1022C00003200849086001208007006802210843B4
:1022D00049070860084600680421084309070860A8
:1022E0007047000000C000500120074908608007C7
:1022F00000680221884349070860084600680421F5
:10230000084309070860704700C0005001200849D1
:1023100008628007006840084000012189070860C2
:1023200008460068042188430907086070470000D8
:1023300000C00050032008490860012080070068A1
:1023400002218843490708600846006804210843C1
:10235000090708607047000000C0005001200749CD
:1023600008608007006802210843490708600846A2
:1023700000680421084309070860704700C0005046
:1023800010B50023022201210F48FFF769FB00234B
:10239000022219460C48FFF763FB02200B49C86173
:1023A000002400E0641C0A488442FBD3012080071B
:1023B0000068012108438907086008460068042175
:1023C00088430907086010BD2001005000C000507C
:1023D0006656000010B500290AD00878002807D0FA
:1023E00005487844FFF7BEF9002801D0002010BD51
:1023F0000248784410BD0000520100004A0100006C
:1024000010B500290AD00878002807D0054878447C
:10241000FFF7A8F9002801D0002010BD0248784439
:1024200010BD0000420100003A01000003B4024860
:102430007844844603BC6047A3E8FFFF0000000027
:1024400000000000303132333435363738394142FC
:102450004344454640305800303132333435363706
:1024600038396162636465664030780004000008B2
:102470000000000000000002000100001000000049
:1024800002400000000000A0000000000540000025
:10249000000000C8000000000C4000000000409C4C
:1024A00000000000194000000020BCBE0000000039
:1024B00034400000BFC91B8E00000004B54000007E
:1024C000504BCFD06607E2CF010000006C41000006
:1024D0003E8251AADFEEA73401000000D94200007D
:1024E000DCB5A0E23A301F97FFFFFFFFB4450000C4
:1024F000FD25A0C8E9A3C14FFFFFFFFFFF3F00007C
:102500000000008000000000FF3F0000000000808D
:102510000000000060260000000000200C00000009
:10252000040100006C2600000C0000202C050000B7
:10253000200100001C00000043000000F8FFFFFF26
:102540000C0000000E0000000F0000002E00000034
:102550001001000043000000F8FFFFFF0040404072
:102560004040404040404141414141404040404066
:102570004040404040404040404040404005020212
:1025800002020202020202020202020202202020D1
:10259000202020202020200202020202020290902D
:1025A000909090901010101010101010101010102B
:1025B000101010101010101002020202020288887F
:1025C000888888880808080808080808080808088B
:1025D0000808080808080808020202024000000073
:1025E00000000000000000000000000000000000EB
:1025F00000000000000000000000000000000000DB
:1026000000000000000000000000000000000000CA
:1026100000000000000000000000000000000000BA
:1026200000000000000000000000000000000000AA
:10263000000000000000000000000000000000009A
:10264000000000000000000000000000000000008A
:10265000000000000000000000000000000000007A
:0C2660000000000000366E0118000000B1
:04000005000000C136
:00000001FF
