:020000040000FA
:10000000D0080020610200006502000067020000C5
:1000100000000000000000000000000000000000E0
:10002000ACFF110B0060000000000000690200003E
:1000300000000000000000006B0200001D390000FD
:100040006F020000710200007302000075020000E0
:1000500077020000790200007B0200007D020000B0
:100060007F02000081020000830200008502000080
:1000700087020000890200008B0200008D02000050
:100080008F02000091020000930200009502000020
:1000900097020000990200009B0200009D020000F0
:1000A0009F020000A1020000A3020000A5020000C0
:1000B000A9020000AD020000AF020000B102000082
:1000C00000F002F800F0BDF80CA030C80838241881
:1000D0002D18A246671EAB4654465D46AC4201D180
:1000E00000F0AFF87E460F3E0FCCB64601263342F5
:1000F00000D0FB1AA246AB4633431847C09C000011
:10010000E09C0000103A02D378C878C1FAD85207B0
:1001100001D330C830C101D504680C6070470000BD
:100120000023002400250026103A01D378C1FBD813
:10013000520700D330C100D50B60704710B56E294F
:1001400002D101F0F9F910BD702902D101F03BFB99
:1001500010BD662902D107F0B7FA10BD652902D19A
:1001600007F0B2FA10BD672902D107F0ADFA10BD51
:10017000612902D1C046C04610BD03681B0A01D3E5
:1001800080231943692902D101F0A0F910BD642927
:1001900002D101F09BF910BD752902D101F096F949
:1001A00010BD6F2902D101F0B9FA10BD782902D132
:1001B00001F0F6FA10BDE92902D101F055FA10BD9F
:1001C000E42902D101F050FA10BDF52902D101F065
:1001D0004BFA10BDEF2902D101F0ACFA10BDF8299D
:1001E00002D101F0EBFA10BD0368DB0901D38023D3
:1001F0001943632902D101F0CAFE10BD732902D14F
:1002000001F0CDFE10BDE32902D101F0D7FE10BDF3
:10021000F32902D101F0DAFE10BD002010BD1FB598
:1002200002F020F804000020002107F07FF8401CB5
:1002300060600020002107F063F8E0601FBD10B58A
:1002400010BD01F0E7FF1146FFF7E9FF05F0D8FB0D
:1002500002F07CFB03B4FFF7F2FF03BC02F0FCFBEF
:1002600017480047FEE7FEE7FEE7FEE7FEE7FEE78A
:10027000FEE7FEE7FEE7FEE7FEE7FEE7FEE7FEE756
:10028000FEE7FEE7FEE7FEE7FEE7FEE7FEE7FEE746
:10029000FEE7FEE7FEE7FEE7FEE7FEE7FEE7FEE736
:1002A000FEE7FEE7FEE70000FEE70000FEE7FEE7F0
:1002B000FEE7000003480449024A044B704700006F
:1002C000C1000000D0040020D0080020D00400208D
:1002D0004343514330B55C18010C130C0D4692B2E8
:1002E0005D4380B251432C19054655430A0C09045D
:1002F0004D1962415843010C00044019514130BD71
:1003000070B500252C46AD1A9C4112DA00252C460A
:100310002D1A8C4102DA00F0EAFF70BD0024404241
:100320008C41214600F0E3FF002440428C412146ED
:1003300019E000252C462D1A8C410ADA002452427D
:100340009C41234600F0D3FF002440428C412146CB
:1003500070BD002452429C414042234600248C41FF
:10036000214600F0C4FF002452429C41234670BD48
:100370007CB51D4616460C00009001D00019401EA9
:10038000084B7B442A4669460190304601F0EDF85F
:10039000002C054603D06946002001F0F9F82846F4
:1003A0007CBD000015120000034610B50B439B07EF
:1003B0000FD1042A0DD308C810C9121FA342F8D0C8
:1003C00018BA21BA884201D9012010BD0020C043CB
:1003D00010BD002A03D0D30703D0521C07E0002031
:1003E00010BD03780C78401C491C1B1B07D10378F7
:1003F0000C78401C491C1B1B01D1921EF1D11846E0
:1004000010BD000030B5441C03E00178401C0029F9
:100410000DD08107F9D10B4BDD0104C8D11A9143EE
:100420002940FAD0001B0A0603D0C01E30BD001BB5
:1004300030BD0A0401D0801E30BD0902FCD0401E30
:1004400030BD000001010101D2B210B513029A18AB
:1004500013049A1800F00EF810BD01E004C0091F43
:100460000429FBD28B0701D50280801CC90700D06C
:100470000270704700290BD0C30702D00270401CE5
:10048000491E022904D3830702D50280801C891EDD
:10049000E3E70022EEE70022DFE7002203098B42B8
:1004A0002CD3030A8B4211D300239C464EE0034613
:1004B0000B433CD4002243088B4231D303098B42C7
:1004C0001CD3030A8B4201D394463FE0C3098B42FD
:1004D00001D3CB01C01A524183098B4201D38B0156
:1004E000C01A524143098B4201D34B01C01A5241F9
:1004F00003098B4201D30B01C01A5241C3088B423E
:1005000001D3CB00C01A524183088B4201D38B0028
:10051000C01A524143088B4201D34B00C01A5241CA
:10052000411A00D201465241104670475DE0CA0FA1
:1005300000D04942031000D34042534000229C4661
:1005400003098B422DD3030A8B4212D3FC2289016B
:1005500012BA030A8B420CD3890192118B4208D341
:10056000890192118B4204D389013AD0921100E0A3
:100570008909C3098B4201D3CB01C01A52418309B7
:100580008B4201D38B01C01A524143098B4201D3E4
:100590004B01C01A524103098B4201D30B01C01A0F
:1005A0005241C3088B4201D3CB00C01A5241830889
:1005B0008B4201D38B00C01A5241D9D243088B42DF
:1005C00001D34B00C01A5241411A00D20146634682
:1005D00052415B10104601D34042002B00D54942E6
:1005E000704763465B1000D3404201B50020C0460F
:1005F000C04602BD70477047704700000246C80FF2
:10060000C00781434B0030B54B405B009B0D20D0B1
:100610001923DB06C91801231B05994220DB03249B
:10062000A40704251346AB400BD3002B04D1EB06E3
:1006300013409B00E34204D40124640700231219F1
:100640005941FF231B0599420BD2C9000143500FAA
:1006500009E0CB0204D501430803024305D0054855
:1006600030BDFF21C905084330BD084607210905F3
:10067000884330BD0000C07FF0B50C46871A9C410E
:100680000D46861A9D4103D2C01BA141D219634178
:100690000D0D1F0DC94EEC1BAE435CD07F057F0DC9
:1006A0000026002F51D02D05AC46A943DD020123C1
:1006B000ED0A1B051D4320231B1B24D41746E740CE
:1006C000381871412F46E740CC199D402818314613
:1006D00061410C0D27D161449A4013D50023401C81
:1006E000594152000ED14008400001224B005205F2
:1006F000D34207D305204007C14201D5B04900E0ED
:10070000B0493046F0BD6B00002A00D001229A1893
:100710001F23203C1B1B01D5002302E0E5402818C5
:1007200071410C0DD7D0012424050919C407CD0748
:1007300040084908E40F28436144002CD5D0002428
:10074000401C61419A40D0D1CDE76A05520DD9D104
:10075000C90FC907D5E79C4D4E00002801D00124E0
:1007600000E0002434195F00002A01D0012600E0D7
:100770000026BE19954FAC420CD8AE420AD8B442FE
:1007800006D001256D05EC42BCD010461946F0BDDF
:100790009942FCD000203946F0BDF0B51FB40C469C
:1007A0000F46811A9F412546861A9D4106D2012592
:1007B000ED076F40401ABC4152187B41210D1E0DC0
:1007C0008D1BAC467D4D8D437ED075056D0D7CD067
:1007D0000D05AE46AC431B031B0B794D52429D41A8
:1007E000202366469B1B14D31746F7403818002673
:1007F0000090744160462F460741E41900989D40DF
:100800002818664116D4714671189A4025D50123DF
:1008100020E093182A466A415200002B00D0521C57
:100820001E23203E9B1B002B61DD3541EE1728184F
:100830006641E8D5001876415B1C9A4000D3401C05
:100840004B05F3181524E34010D3002B52D071460A
:100850007118D30FC01802D3491C05B0F0BD012395
:10086000DB079A42F9D140084000F6E70122520521
:10087000B21801D1002853D00123CC0ADB029943DE
:10088000891E002A08D1020C03D0020C0004103982
:1008900002E00246002020390023550B05D1120248
:1008A0000823550B01D152010D23550C01D1120122
:1008B0001B1DD50C01D192009B1C150D01D15200BE
:1008C0005B1C2025EE1A01E02CE022E00546F540F5
:1008D00015439840CA1AE10769181305C918002A78
:1008E000BBDA032040070818C10FC9070FE07146A3
:1008F0006118B2E7F10740080843711071444A00DB
:100900000CD001235B059A42A7D2C90FC90700206A
:10091000A3E74905490D26D1002001E00028F4D1C4
:1009200000219AE7284D6600002801D0012100E04F
:10093000002171185F00002A01D0012600E0002686
:10094000BE19224FA94210D8AE420ED8B14208D0EB
:1009500001256D05E94206D01946A802414010461E
:100960007BE79C4201D0214677E70020394674E7B7
:1009700010B50C465C4005D50124E4076340FFF741
:100980000CFF10BDFFF778FE10BD30B40C465C4084
:1009900004D50124E407634030BC6DE630BCFCE6BE
:1009A00070B50124E40761400D465D4002D4FFF7B5
:1009B00063FE70BD6340FFF7F0FE70BDFF070000EF
:1009C0000000F0FF0000F07F0000E0FF0000F87F73
:1009D000F0B5F94D0C091E092C402E402F468BB066
:1009E000A7437DD0B543FCD0002E7AD0002CFCD09C
:1009F0000D465D40ED0F2543AC1BFF25AD0464198A
:100A00000894C502440DC9022143500DDC02044381
:100A10000120C00701430443D2020191200C110CB4
:100A200000958C46010423468B430A9161460904D4
:100A3000E24D8A430991010A7D44491980390978B8
:100A400005464D4301266D18F605751B6943C90C13
:100A5000640B891C4C436418B5012C1B250C2E0417
:100A6000B4434C434D43210C691889090591009DFD
:100A7000E90701D00121C90704912C4601996708B3
:100A8000CD072F434C08059DE10B4D432D0C294606
:100A90006646754302950D4645432E46029D7D1BD5
:100AA000B44100950D465D4301942C0C2F040D4676
:100AB0005543AE462D0C3D43029503947546049C68
:100AC0002D04641B049406D2029C039D641C002622
:100AD00075410395029401AC70CC009F7D1B01E031
:100AE0003EE162E1B4410904009507910194059942
:100AF000A4086143090C0C464443650BE7040C460B
:100B000066467443A646640B3C43039502947446C0
:100B1000049DE4042C1B049406D2029C039D641CD7
:100B2000002675410395029401AC70CC009F7D1B9B
:100B3000B44101940C465C430095650FE7000C46F8
:100B40005443A646640F3C43039502947446049DA7
:100B5000E4002C1B049406D2029C039D641C002616
:100B600075410395029401AC70CC009F7D1BB4418C
:100B7000AE09AF06049DC900AD092F43049DA4062C
:100B8000AD060495079D344369180791059DE10B57
:100B90004D432D0C29466646754302950D46454347
:100BA0002E46029D7D1BB44100950D465D43019488
:100BB0002C0C2F040D465543AE462D0C3D4302959B
:100BC00003947546049C2D04641B049406D2029C75
:100BD000039D641C002675410395029401AC70CC02
:100BE000009F7D1BB44101948C050694079C890AE3
:100BF000611800950791019C0599A4086143090CAF
:100C00000D464543680BEF040D46644665436C0B87
:100C10003C43049FED047D1BAC4602D20025641CBE
:100C20006841009E019D371B854108465843019548
:100C30000C46460FC5005443600F28436546E40048
:100C40002C1B02D20025401C6E41019D3F1AB5416C
:100C50002846BD09800628438446A009BF064E02E7
:100C60000699A40676180743079D002068410A9953
:100C7000079019430020099B00906046FF19134319
:100C80004041E20F64003A43A4460446D71A8C411F
:100C9000A04203D90120009020463A46C70F94187D
:100CA00040416246D20F2243644664000494009C93
:100CB000BE466400D71AA446044602978C41774684
:100CC000002F01D1A04204D96046401C8446029AFC
:100CD0002046C40FA64694184041049A0546D20FF8
:100CE000224364466400D31A8D417146002901D124
:100CF000A84202D928461A46641C10430122002843
:100D000000D0164361020020079B891904465C410C
:100D10000223002C02DB491813466441089DCE0AC9
:100D20002D145D194B056705E10A2C050D1908996D
:100D30003E43C9076940002B08D0934006D30022E8
:100D4000761C5141002B01D1760876001C4A002DFB
:100D500043DB154241D0AA433FD030460BB0F0BD33
:100D600006180D464D41174C7642AC411AD39518E2
:100D70001C465C41134A6D42A24113D30122520525
:100D80004C00D4420AD15C00D4420BD04B4002D577
:100D900092021143E2E749004908DFE75940C90FD1
:100DA000C90718E000200849D8E7054801420DD1DD
:100DB0000342F7D0F2E700000000FF07A290000016
:100DC0000000F07F0000E0FF0000F87F114859406C
:100DD0000143C01241400020C0E70123089A9B064E
:100DE0009A4205DC032252078918C90FC907B5E7E3
:100DF000052252078918074A1143D2125140ADE724
:100E000070B515461C4602460B4628462146FFF79C
:100E1000DFFD70BDFFFFFF7FF0B58B4C0F0925464E
:100E200089B0BD437BD01D092646AE43FAD00E469D
:100E30005E402740F60F3E43254071D024012142F9
:100E4000FBD0FF24AD19A4042D1B039501252D050E
:100E5000DB02DB0AC9022B43C90A29431E0109012F
:100E6000040F130F050121431701880B82039143DF
:100E70002D098C46A90B1E438A039543B30B9A0395
:100E800096433F09BA0B9403A74302962E467E432E
:100E90000497B6464E19D7190C4601965443059748
:100EA0007E43371B7646BF1B3601B646BE0B36194E
:100EB00000967646BC043719009C01D3641C00944C
:100EC0006400002F01D001263443029E049F754325
:100ED00066467E430496760034196E0034190094F9
:100EE000029C019E1C196643751BAE46069465461E
:100EF0004519059C05956C43594375460891691A37
:100F00000191049E01465143A41B0491611A009C67
:100F10000791E10605D061090122114302E072E068
:100F20006EE06109089D00272C0A2D066918049DB2
:100F30007C412A0A2D066918019D6241AC0DAD0263
:100F40006D185441079A910D920255196141029A08
:100F5000644658435443069B059A5A43121A131B7E
:100F60009A0E9B015B187A41010B0005C318514191
:100F7000220A200644195A419A4200D2491C0120F3
:100F80004002814203D315230226F64302E01423D4
:100F90000326F6432020C51AA9401746AF40DA4081
:100FA0000A4320460399D8400914731819055118AB
:100FB000039A3843D2075140AC4009D001229440F3
:100FC00006D30022401C5141002C01D140084000B2
:100FD0001E4A934212D3012203989206904207DBE5
:100FE0000520400709181A480143C012414004E097
:100FF000032040070818C10FC907002009B0F0BD41
:101000000020F107FAE705180C464C4111486D42E3
:10101000A04115D394181A465A410E486442904193
:101020000ED301204A004005824209D35A00824271
:1010300006D35940C90F084AC90700201143DDE70C
:1010400000200649DAE700000000FF07FE07000065
:10105000FFFFFF7F0000E0FF0000F07F0000F87F4F
:101060000121C9050123411842001B06D3185B0E5C
:101070000AD0C1100722D206891840075242D14235
:1010800001D5520089187047090208D50146002A87
:1010900003D0C10FC90700207047104670474202B5
:1010A00002D0002002497047072109050143F4E7F7
:1010B0000000F87FF0B5FF252D04C609C209FF27FF
:1010C00004462E400137CB093E4348402A402B407E
:1010D0000746002A6BD0002B69D0AA4267D0AB42EA
:1010E00065D0002800DA32460125ED0529432C435E
:1010F00009022002090AD21A4B0C7F24E31A434C3E
:10110000000A7C44E35C7D242404121914145B005F
:10111000A218884201D3521C00E0400049420C460C
:101120005C4324115C43DB016415E318040A5C434F
:10113000C502200D0C4644436419250A5D43230370
:10114000EC0C0D46654300030019EB184C42A3421A
:1011500001D35B18401CD4052018002B07D05B007E
:10116000C91804D3401C002901D1400840003F2188
:1011700089048A4209D3002A08DC1106090F04D029
:10118000032149074018C00FC007F0BD01224100EC
:10119000120689187F2252069142F6D2052149078C
:1011A000C84201D59010F0BDFF20C005F0BD002F52
:1011B00000DA32461648AA4207D2AB4205D21902DB
:1011C000090E17D0F80FC007F0BDFF2563002D06EC
:1011D000AB42F9D84900A942F6D8AB4201D1A942A5
:1011E000F2D0A94201D1002101E061004908D005F7
:1011F0000843F0BD1102090EFBD0FF200243D005C9
:10120000F0BD0A460146104654E70000588A000027
:101210000000C07F10B501469E240002CA15A30736
:10122000002A02D01843002A04DBA21A002A0CDD8F
:10123000D04010BD1206120E01D140004008A21A83
:1012400003D4D04040420028F3DDFF2248001206BC
:10125000904201D9002010BDC817C043584010BDAE
:101260000102C21504D00123DB071943002A0ADB5F
:101270009E239A1A02D40846D0407047FF224100AC
:101280001206914201D900207047C017C043704731
:101290001F22030C02D10F2200041CD0030E01D127
:1012A0000002083A030F01D10001121F830F01D180
:1012B0008000921E002801DB4000521ED20551180A
:1012C000021251181922904004D3491C002801D160
:1012D0004908490008467047C10FC90700D040427D
:1012E000012292071143D3E701218907D0E7FEB518
:1012F000054610460C46184373D0AE468C46002077
:10130000AD1A01469C4167D36646002701243D463D
:10131000B61A9D4102D313463A46212465467646C5
:101320002F04360C3E432D0CB61A9D4104D3150CE8
:101330001B042B4312041034654676462F06360AEA
:101340003E432D0AB61A9D4104D3150E1B022B43B2
:1013500012020834654676462F0736093E432D09AA
:10136000B61A9D4104D3150F1B012B431201241DF6
:1013700065467646AF07B6083E43AD08B61A9D41AE
:1013800004D3950F9B002B439200A41C6546764620
:10139000EF0776083E436D08B61A9D411AD392189E
:1013A0005B41641C16E00018764665464941B71A51
:1013B0009D410191009009D36046B11A98418E4633
:1013C0008446009801990025401C6941DD075208B8
:1013D0002A435B08641EE6D57246634603B0F0BD3F
:1013E000FFE700200146C046C0462A462346F5E7EF
:1013F00010B500F01BFB006810BD10B5044600F0EE
:1014000015FB046010BD70B5044685690068C1060F
:1014100001D5302600E02026C00707D070BD6268E5
:101420003046A1689047206A401C20626D1EF6D5A8
:1014300070BD70B5044685690078C00707D170BDDE
:101440006268A16820209047206A401C20626D1EBF
:10145000F6D570BD09684A0501D540B27047C90587
:10146000FCD500B2704709684A0501D5C0B2704783
:10147000C905FCD580B2704770B50C460546012AF7
:1014800005D02878800600D5EA69002302E0012310
:1014900005E05B1C934202D2E05C0028F9D1A86908
:1014A000E618C01AA861286AC01828622846FFF703
:1014B000AAFF04E06A682078A968641C9047B442D7
:1014C000F8D32846FFF7B5FF70BD0000F7B500253B
:1014D00075291068009914A611D0FFF7BBFF0028EA
:1014E00002DA404211A608E0009909688A0701D58E
:1014F0000FA602E0490704D50EA6012501E0FFF77B
:10150000B2FF009F0024243704E000F083FD303157
:101510003955641C0028F8D12B46324621460098E4
:1015200000F0C5FAFEBD0000000000002D00000024
:101530002B0000002000000011680268006A5305BB
:1015400001D5087009E0D30501D5088005E0130630
:1015500002D5C21705C100E00860012070470000F5
:1015600001694A1C02610878704700B58FB002918A
:101570000021059105490193794403911146049096
:10158000684600F02DF90FB000BD0000E5FFFFFF39
:101590000A681070521C0A6070470CC908399A42D8
:1015A00002D2531C0B60107070470000F7B5044660
:1015B000154686B02B487844002703C83E46009065
:1015C000019111E007986A467100415A02A800F0A3
:1015D00001FD411C07D02178890603D5E26939183D
:1015E00091420ED83F18761C2078800602D5E0691B
:1015F000B84206DDAE42E5DB07987100405A00288C
:10160000E0D1A069C01BA0612046FFF7FCFE154891
:1016100078445A3803C800900020019116E0410038
:101620006A460798415A02A800F0D4FC0590401C75
:101630000AD0002505E0626802A8A168405D9047D5
:101640006D1C05988542F6D30498401CB042049066
:10165000E5DB206AC01920622046FFF7EAFE09B0E8
:10166000F0BD000036860000F7B5D21D0025D20877
:1016700015A6D200F52905CA11D0002A05DA0021E5
:101680004042914111A60A4608E0009909688B077B
:1016900001D50FA602E0490701D50EA60125114686
:1016A000009F0024243704E000F0C4F930323A559A
:1016B000641C02460A43F7D12B4632462146009865
:1016C00000F0F5F9FEBD0000000000002D00000054
:1016D0002B0000002000000070B5044600212434D7
:1016E00008E05507D2086D0F303565545D072A4371
:1016F000DB08491C15461D43F3D10468002310A2E2
:10170000250708D5A40601D4002904D0C469012303
:101710000CA2641EC46100F0CAF970BD10B5044685
:1017200021461068FFF79FFE002302462046FFF780
:10173000D3FF10BDD21DD108C9000CC9CCE70000F1
:101740000000000030000000F8B50F4601880905D0
:1017500002D5224C7C4402E0204C7C440E340546E9
:101760000021243508E016071209360FA65D6E54D5
:101770001E0732431B09491C16461E43F3D122465D
:1017800004780023240705D5702F06D0002901D046
:101790000223113200F08BF9F8BD01231032F9E772
:1017A00070B504460D4621461068FFF75CFE002325
:1017B000024629462046FFF7C7FF70BDD21DD30859
:1017C000DB000CCBC0E730B403682024126823434D
:1017D00003600823C36130BC0023B5E7A084000088
:1017E000F3B50446002081B020622046E1688847B6
:1017F000002872D0252802D06268A168ABE0594F5A
:1018000000267F442046E16888472028054608DBFB
:10181000312D06D2781920380078002801D00643EF
:10182000F0E7B00701D5042086430020E0610746B9
:10183000A0612A2D0AD0284602F074FB002827D088
:10184000B8000019303D0090856119E00298BA0097
:10185000121902C8916102902046E1688847012F61
:10186000054617D1E06900281FDA202086431CE0D6
:1018700000980A21806948430099401930388861EE
:101880002046E1688847054602F04CFB0028EFD16E
:10189000012F0AD02E2D08D12046E1688847054641
:1018A000202006437F1C022FC3DBA069002803DA37
:1018B0004042A06101200643F00701D0102086437A
:1018C0006C2D0BD0682D09D04C2D3CD06A2D38D012
:1018D000742D38D07A2D36D016E040E0E1682F46DE
:1018E00020468847B842054609D16C2F29D00120EF
:1018F0008002E168064320468847054604E06C2FD5
:101900001DD0FF2001300643002D28D02846413845
:10191000192803D80120C00206432035204626603E
:101920002946029A1646FEF709FC002810D0012825
:101930000BD0F61DF008C0000830029055E740209B
:10194000E1E78020D5E70020D3E7361D02964CE77B
:1019500062682846A1689047206A401C44E7206AD4
:10196000FEBD00001A84000070B505464800440D15
:10197000124B0020002C0AD0634008D09A4206DAAD
:101980006642B24203DD12054019514170BD002C80
:1019900008D0002B09D0C90FC907002AF6DB084A76
:1019A000114370BDC90FC90770BD28460A03104313
:1019B00002D00020034970BD284670BDFF0700001B
:1019C0000000F07F0000F87F10B5FF231B064400E5
:1019D0009C421DD84C009C421AD80346124A0B4325
:1019E00007D4401A02D3EFF3008010BDEFF300805C
:1019F00010BD081A06D2EFF3008001219043C907F9
:101A0000084302E0EFF30080904380F3008810BDAC
:101A10000D231B041A4204D01146002000F00EFBD7
:101A200010BD00F0EBFB10BD0000009000487047B7
:101A30006C0400200B4670B50246890780080843F5
:101A400019469D08141AA9412509080705430809E4
:101A50002C194841250A01060D43010A2C19414160
:101A6000200C0D0428430D0C00194D410021401994
:101A70004D41C00869070843E908840F8D002543DC
:101A8000840024184D4124196D41121BAB4107E01D
:101A90000925ED432C11521963410024401C61417A
:101AA0001C460A250026551BB441F1D270BDFFB576
:101AB00004460D4681B0243000902168880604D584
:101AC0001022E0699143216000E00120A84201DD7D
:101AD000471B00E000270498A1697A191018081A1A
:101AE000A0612078C00602D42046FFF78CFC0026B7
:101AF00008E003986268A168805D9047206A401CF6
:101B0000761C206204988642F3DB2078C0060AD552
:101B10002046FFF778FC06E06268A1683020904715
:101B2000206A401C206238467F1E0028F4DC07E053
:101B300000986268A168405D9047206A401C20625E
:101B400028466D1E0028F3DC2046FFF772FC207843
:101B5000000602D5022005B0F0BD0120FBE7000021
:101B60007047FFB50C461E468FB003CA0890099116
:101B70004F007D0D00D16D1E002108460020C0469B
:101B80000321099A89050840002A03DA8200801897
:101B900040080840800D01280A9002DD0020C04363
:101BA0000A90089807430DD0F048F1492818484397
:101BB0000714189800281DD07542291E1DDD0A98AB
:101BC00042421BE01898012802D00020302104E096
:101BD0000020F24305E02154401CB042FBDB3046BC
:101BE0000022189B002121540F998B600A604860E5
:101BF00013B0F0BDBD1B6D1CDFE70A9A002900DAA7
:101C000069420BA800F076FB0BAB07CB03AB07C315
:101C10000899099800F0DAFB6B4607C30146D548DE
:101C20000918002D00910BDDD24903980A9A494208
:101C30004018002303A90390684600F037FE08E02F
:101C400003990A9A0023081803A90390684600F034
:101C5000D7FD6B4607C30004000C03D00020C0432F
:101C6000410800E01046189A002A03D00022009292
:101C700015461EE0751E05D4FFF7DCFE30326255B6
:101C80006D1EF9D501220843079602D000227F1C61
:101C900004E02078302801D100227F1E002A069718
:101CA00087D01EE0112D07DAFFF7C4FE30326255EF
:101CB0006D1C02460A43F5D1084303D00098002862
:101CC00019D00EE00021681E05E0235C625C6354BD
:101CD0002254401E491C8142F7DBA81B401E079579
:101CE0000690079A18990020A0540F98079B069A0F
:101CF00081600CC07CE711260020189059E7D21DA6
:101D0000F0B50D460446D10893B0C90003C90C9044
:101D10000D9102F007F802460D98C00F01D02D205A
:101D200007E02068810701D52B2002E04007C00FA3
:101D30004001032A0F9001D0072A05DB03462946FC
:101D4000204600F093FA0EE12078800601D5E7697D
:101D500000E006272846652D04D0662814D0672D9C
:101D600069D12DE00020112F009001DB112300E04C
:101D70007B1C0CAA03A910A8FFF7F3FE11990026FB
:101D800010987D1C0E9142E001203B460CAAC00732
:101D90000B900120009003A910A8FFF7E2FE119D0F
:101DA00012981099002600280E9501D1781C0D1864
:101DB000781B02D446427D1C761EE81B00903AE058
:101DC000012F00DA01270020112F009001DD1123DF
:101DD00000E03B460CAA03A910A8FFF7C2FE119928
:101DE0003D46109800260E91217809070BD40E99D4
:101DF000A94200DA0D4603A9012D04DD4A19203A53
:101E0000D27F302A06D0B84201DA011D04DA01215E
:101E100000910FE06D1EEFE7002802DC86192D1AF5
:101E200003E0411CA94200DD0D46801B401C0090D0
:101E30000120C0070B902078000705D40098A84225
:101E400002DB0020C043009069460020C8720B9856
:101E5000012102AF0337C907884225D00220109024
:101E60002B2011900B9800280BDA40420B902D206C
:101E7000119006E00B9800F0CDF830317F1E0B90EA
:101E800039701099481E00291090F3DC0B98002837
:101E9000F0D111987F1E38702088000501D54520AB
:101EA00000E065207F1E387001A8C01BC01D0B908C
:101EB0000F98002800D0012041190098C017091878
:101EC0000B980818A169081A401EA0612078C00666
:101ED00002D42046FFF797FA0F98002805D06268D1
:101EE000A1689047206A401C20622078C00625D552
:101EF0002046FFF788FA21E0002E07DB0E98B0425B
:101F000004DD03A86268805DA16802E06268A168E0
:101F100030209047206A761C401C20620098401EAA
:101F2000002800900AD100F09DF9C068626801683D
:101F3000405CA1689047206A401C206228466D1EC4
:101F40000028D9DC07E062683878A1687F1C9047D8
:101F5000206A401C20620B99481E00290B90F2DC7D
:101F60002046FFF766FA032042E6000001FCFFFF6F
:101F7000104D0000E1DFFFFF10B54369002B02D0D8
:101F8000C046C04601E0FFF777FA012010BD127885
:101F9000014624310A7000224A700122ECE71168E0
:101FA0000022D243E8E710B54369002B02D0C046B7
:101FB000C04601E0FFF7FAFA012010BD1288014681
:101FC000243182840022C2840122ECE711680022BD
:101FD000D243E8E770B516460C46054600F03AF9DC
:101FE0000368FF200230C05C012807D0FF2C0ED808
:101FF000185D00280BD001202C7070BDFF333246D5
:10200000214608331868C3182846984770BD002039
:10201000C04370BD01468008081A02091018020A60
:102020001018020C1018C008820012185200891AE9
:1020300001E0401C0A390A29FBD27047C80212D5B8
:102040004803400F002804D0C803C0430121884042
:102050007047EFF3008000010009032109070843DE
:1020600080F300887047002070470000F8B5224CCC
:102070004E00069DA6420AD8A64201D1002806D1EC
:102080005E00A64203D8A6420AD1002A08D00D2439
:10209000240425422CD029460020FFF7CFFFF8BDAD
:1020A0000C461C430CD4994202D0EFF30080F8BDDB
:1020B000904202D0EFF30080F8BDEFF30080F8BD4E
:1020C00009242407E5008B4206D0EFF30080A043EB
:1020D000591A06D2284304E0101A05D3EFF3008002
:1020E000A04380F30088F8BDEFF30080A043F1E740
:1020F000009500F033FCF8BD0000E0FFF0B53D4B6B
:1021000002460C461C400020002C63D03A4D8B4305
:1021100066D000296BDB0B0D1D05A94301252D059C
:1021200029430124FD33E34001D392184941FF3391
:1021300081339C468B02940D0121234389074C4235
:10214000920200271B198C105D1A04D42D1B02D497
:102150002B466500491992185B416408F4D15C1A5A
:1021600008D40125ED07EE175519744102D42A460B
:102170002346491C94185B41012292071D46E61B29
:102180008D4106D4B61A854103D42B4655003446FA
:102190007F1924195B415208802AEFD1234300D0D4
:1021A000022338460A22D04001D3012213438A0574
:1021B00010436246890A12058918002B09D00122B2
:1021C000D34002D30022401C5141002B01D14008D2
:1021D0004000F0BD0B03134307D0C90FC907F0BD82
:1021E0000803104303D1002901DB1046F0BD002095
:1021F0002946F0BD0000F07F0000F87F10B50248CE
:1022000000F0B6FB10BD00000000C07F0048704722
:102210006C0400207546FFF7F9FFAE4605006946DD
:102220005346C008C000854618B020B5FEF742F8F6
:1022300060BC00274908B6460026C0C5C0C5C0C559
:10224000C0C5C0C5C0C5C0C5C0C5403D49008D465C
:102250007047000010B500F005F8001D10BD00BF6C
:10226000CD500000004870478C040020F8B51F4690
:10227000044601230068DB02032601461840072AB2
:1022800005DB002801D017A506E017A504E000280B
:1022900001D016A500E016A5102081432160A06999
:1022A000C01E002FA06101D0401EA0612046FFF794
:1022B000AAF8002F09D038466268A1689047206AC2
:1022C000401C2062C01C206206E0206AFAE76268B7
:1022D0002878A1686D1C9047761EF8D22046FFF73B
:1022E000A8F8F8BD4E414E006E616E00494E4600A2
:1022F000696E6600F7B516468AB0334878446C4676
:1023000003467C33C06F5A689B680DC42E487844DE
:10231000763003AC0DC80DC43720C0010818372132
:102320001B30FEF7C4F805460C46803D1B3C02D529
:102330006442012000E000200027099010E0E0073F
:102340000CD00C2020497843794432464C3941184E
:102350006846012300F054FA6B4607C364107F1CE3
:10236000002CECD1184F7F442E3F16E0E80712D026
:102370002001C0190EC80691089307920068F04228
:1023800001D1981908903246012306A903A800F04C
:1023900037FA03AB07C36D10641C002DE6D1099812
:1023A000002806D032466946012303A800F07EFAD1
:1023B00005E001233246694603A800F021FA0A9B92
:1023C00007C30DB0F0BD0000D879000003464000FF
:1023D0000A4610B5400D0BD00121C9070F24A402F5
:1023E00000191C0364082143540D2143D20207E065
:1023F00000210120F2E7D40F490021435200401E82
:102400000029F8DADB0FDB07184310BDFFB50D46D6
:10241000144685B04868516801F05EFC0091019057
:10242000A868A16801F058FC02910390A86861684F
:1024300001F052FC029A12188242029201D201204B
:1024400000E00020019A0B18D2180028019202D057
:102450008A4202D903E08A4201D2012000E0002032
:102460000099081800906868A16801F035FC029A8C
:1024700012188242029201D2012000E00020019A4B
:102480000B18D2180028019202D08A4202D903E028
:102490008A4201D2012000E0002000990818009033
:1024A0002868216840004900400849084018FA4956
:1024B000471814E001994000C90F084300900198A3
:1024C00002994000C90F0843019002980399400007
:1024D000C90F08430290039840007F1E03900098A4
:1024E0000028E7DA0898002801D0EC4E00E000262A
:1024F000B74201DA012000E00020002804902AD031
:10250000F71BF806C00E15D0029B2021091A039A6A
:102510008B401A430392029A019BC2408B401A439C
:102520000292019A009BC2408B4000991A4301928B
:10253000C14000917B110DD06F460320C11A03D515
:1025400000218200B95003E08A008100BA587A5015
:10255000401EF3D5374603980299002800D0012089
:10256000014308980291002808460CD0002800D0AA
:1025700001200199019A490508430121D20AC902A3
:10258000D202019200E001210E9B0122D207012B11
:1025900002D0002B03D013E0002807D120E09042A6
:1025A00004D890420CD1019B0B4209D0019B5918D1
:1025B000019105D10099491C009101D17F1C009225
:1025C00000280DD0102108460020C046049800289D
:1025D00006D00F98002803D0082108460020C046E6
:1025E00028682168019B009A4840C10F0598C907D7
:1025F00039430EC009B0F0BDFFB587B0099A0898FD
:102600000899536892684068896896460022039347
:1026100017469446089A12685300099A5B08126894
:10262000520052089A1A9E4BD4180A9A002A01D0D6
:10263000352200E040220692002201231546049232
:10264000DB07059324E0002D05D175460346039E64
:102650004D1BB34109D375466646039B491B049D38
:102660009841059B7519AC465F4163463B4308D0D2
:10267000059B049EDD0776082E435B0804960593B0
:1026800001E0521E641EC50FED0749184041521C5F
:10269000069B9A42D7DB002D04D17546039A6B1A2C
:1026A000824101D203200CE0039A0B466B4042406A
:1026B000134303D0014303D0012002E0022000E0D5
:1026C0000020614601910021009702910A9900299A
:1026D00005D0614640020143704B019102E0800742
:1026E000002302909C4201DA012000E00020070054
:1026F0003AD01A1BD006C00E15D0029D2021019C95
:10270000091AC5408C402543029C8C4000D001240E
:102710002543019C0295009DC4408D4000992C43A7
:102720000194C140009154111DD06D460221002238
:1027300002290CD10320001B07E0002804DB8600DF
:10274000AE59002E00D00122401C0328F5DB081BE7
:1027500002D588002A5004E08000285810438A00DF
:10276000A850491EE3D51C460A98002802980CD0B0
:10277000002800D001200199019A49050843012150
:10278000D20AC902D202019200E00121109B01226B
:10279000D207012B02D0002B03D013E0002807D171
:1027A0001FE0904204D890420CD1019B0B4209D00B
:1027B000019B5918019105D10099491C009101D143
:1027C000641C009200280CD0102108460020C0464E
:1027D000002F06D01198002803D0082108460020B9
:1027E000C04608980999019A009B0068096848400A
:1027F000C10F0798C907214382600AC00BB0F0BD22
:1028000000B585B0019300920A460146002302A854
:10281000FFF7FCFD02A807C805B000BDFFB50A46DA
:102820001F4685B00799019301230091014602A834
:10283000FFF7ECFD02990398049ECA0F4900D207E6
:1028400000920F22490892028C1A0021002800DB16
:102850000C46450013486D08844214D3079A002A99
:1028600004DA441E0026104DF64302E004460D46ED
:102870000E46102108460020C046002F03D0042138
:1028800008460020C0462005E90A0843009908438D
:102890006905F20A1143ADE602C0FFFF013C0000EA
:1028A000FF3F0000FF070000FFFFFF7F00B585B07E
:1028B000019300920A460146002302A8FFF79CFEFE
:1028C00002A807C8A8E7FFB50A461F4685B00799C2
:1028D000019301230091014602A8FFF78DFE0299A2
:1028E0000398049ECA0F4900D20700920F2249089C
:1028F00092028C1A0021002800DB0C46450011488A
:102900006D08844214D3079A002A04DA441E002674
:102910000D4DF64302E004460D460E4610210846D2
:102920000020C046002F03D0042108460020C046E6
:102930002005E90A0843009908436905F20A114392
:1029400058E60000FF070000FFFFFF7F10B50446B8
:10295000C046C0462046FDF77DFC10BD10B50020E6
:102960000249029A00F004F810BD00000000F87F50
:1029700010B50C461107090F092904D00A290AD0FD
:1029800008290CD104E011460820FFF757FB06E0A8
:10299000510606D501E0510601D50120C0072146A8
:1029A00010BDD10607D501010909CC084907000E61
:1029B0000006044309E0410F20024907000A0143D1
:1029C000200E00061D22D14101430846E7E7000022
:1029D000024670B50A4392072AD11E4DEE0104C883
:1029E00008C9541B9443344017D0D0B2D9B2401A0E
:1029F0002106014310D190B299B2401A210401433B
:102A00000AD110021902000A090A401A21020143E0
:102A100002D1100E190E401A70BD9A42DFD010BAC2
:102A200019BA884201D9012070BD0020C04370BD91
:102A300002780B78401C491C002A09D09A4207D121
:102A400002780B78401C491C002A01D09A42EFD032
:102A5000D01A70BD0101010101491820ABBEFEE78B
:102A6000260002007047026801238B409A430260EF
:102A7000704702461068C840C007C00F704700008A
:102A8000FFB581B006460D461746504C5049701AA6
:102A90008E4223D008DC4F48301800280BD001218B
:102AA0000903401A38D10FE001210903401A1FD051
:102AB000401A31D126E001208007806801210843B7
:102AC00089078860414C27E0012080078068022147
:102AD0000843490788603D4C10341DE00120800701
:102AE00080680421084309078860384C203413E0CB
:102AF00001208007806808210843C9068860334C9C
:102B0000303409E0012080078068102108438906DD
:102B100088602E4C403400BF00BF012300222946AC
:102B2000204600F07DFD012F05D170680121A940EC
:102B30000843706004E070680121A9408843706018
:102B40000498012808D1000200590121A940084336
:102B5000FF210131085108E0FF2001300059012117
:102B6000A9408843FF21013108510A98012808D162
:102B7000400200590121A94008430121490208519E
:102B800008E00120400200590121A94088430121A9
:102B9000490208510B9801280BD10320000220188C
:102BA00000680121A9400843032109026118086057
:102BB0000AE003200002201800680121A940884390
:102BC000032109026118086005B0F0BD0001005042
:102BD0000030005000F0FFAF026801238B405A40E4
:102BE00002607047026801238B401A4302607047FD
:102BF00010B501210348FFF7F5FF01210148FFF758
:102C000032FF10BD0040005010B502210748FFF709
:102C1000E9FF01210548FFF7E5FF02210348FFF71F
:102C200022FF01210148FFF71EFF10BD00400050A8
:102C300010B501210548FFF7D5FF02210348FFF732
:102C400012FF02210148FFF7CDFF10BD00400050E8
:102C5000F8B506460D461746002000904524240688
:102C6000FF2D03D901200090FF3D013D0F2D06D817
:102C70002846800045210906441826601CE04520AE
:102C800000060921890141182846103880000C18D7
:102C90000098012809D120681F214901884320603C
:102CA000206871010843206006E020684009400167
:102CB0002060206830432060394668B201F084F813
:102CC00068B2002809DB00BF00BFC206D20E012196
:102CD0009140034A116000BF00BF00BFF8BD000073
:102CE00000E100E01CB500200090034601220146EF
:102CF00001900A48FFF7C4FE00200090034601221D
:102D0000082101900648FFF7BBFE00210348FFF7AA
:102D100069FF08210248FFF7A6FE1CBD00400050D5
:102D2000002000501CB501210E48FFF79CFE00203A
:102D3000009003460122022101900A48FFF7A0FEFD
:102D400002210848FFF78FFE00F00EF80121054828
:102D5000FFF748FF00F008F801210248FFF783FE63
:102D60001CBD00000040005010B5022001F092FC94
:102D700010BD00001CB50020009003460122114642
:102D800001900648FFF77CFE0020009003460122D8
:102D9000022101900148FFF773FE1CBD0040005066
:102DA0001CB501210E48FFF75EFE0020009003468F
:102DB0000122022101900A48FFF762FE0221084821
:102DC000FFF710FFFFF7D0FF01210548FFF70AFFCB
:102DD000FFF7CAFF01210248FFF745FE1CBD0000B6
:102DE000004000507CB505460024002000900123DF
:102DF0000246022101901448FFF742FE002617E028
:102E000001211148FFF72FFEFFF7AEFF01210E4809
:102E1000FFF7E8FE6006040E02210B48FFF729FECB
:102E2000002801D0601CC4B2FFF79EFF701CC6B220
:102E3000082EE5DB002D02D1FFF7B2FF01E0FFF71E
:102E400071FF20467CBD0000004000507CB5044668
:102E50000020009003460122022101901448FFF750
:102E60000FFE01211248FFF7FEFD00251DE0802026
:102E70002040C011002804D002210D48FFF7B2FE07
:102E800003E002210A48FFF7EEFD6006040E01216F
:102E90000748FFF7A7FEFFF767FF01210448FFF788
:102EA000E2FDFFF761FF681CC5B2082DDFDB7CBDCA
:102EB000004000501CB50020009003460122022172
:102EC00001900C48FFF7DCFD02210A48FFF78AFE5B
:102ED00001210848FFF786FEFFF746FF022105485B
:102EE000FFF7C1FDFFF740FF01210248FFF7BBFDDF
:102EF0001CBD0000004000501CB50020009003469F
:102F00000122022101900C48FFF7BAFD01210A4875
:102F1000FFF7A9FD02210848FFF7A5FDFFF724FFF1
:102F200001210548FFF75EFE02210348FFF75AFE24
:102F3000FFF71AFF1CBD0000004000501CB5002424
:102F40000020009001230246022101901148FFF762
:102F500097FD02210F48FFF745FEFFF705FF01210E
:102F60000C48FFF73FFEFFF7FFFE07E0601CC4B20E
:102F7000FA2C03DDFFF7C0FF01201CBD022105482C
:102F8000FFF777FD0028F1D101210248FFF76BFD23
:102F90000020F2E70040005010B5FFF7EBFE802163
:102FA0006B2000F0D4F8642001F066FB00216B2058
:102FB00000F0CDF8032000F087F8002000F07CF846
:102FC000322000F0A6F80021382000F0C0F80021DF
:102FD0006A2000F0BCF80021232000F0B8F880211E
:102FE000372000F0B4F8752000F013F80446682C80
:102FF0000BD101216B2000F0AAF800216C2000F019
:10300000A6F8322000F085F801E0012010BD002074
:10301000FCE770B50446FFF74DFFD020FFF716FF21
:10302000FFF78CFF2046FFF711FFFFF787FFFFF741
:1030300041FFD120FFF70AFFFFF780FF0020FFF7D5
:10304000D1FE0546FFF758FF284670BDF8B5064685
:103050000F4614461D46FFF72DFF7106080EFFF7B9
:10306000F5FEFFF76BFF002803D0FFF745FF0120B7
:10307000F8BD3846FFF7EAFEFFF760FFFFF71AFFDB
:103080007100491CC8B2FFF7E1FEFFF757FF0DE0E2
:10309000012C04D10020FFF7A5FE287003E00120D9
:1030A000FFF7A0FE2870601EC4B26D1C002CEFD18B
:1030B000FFF722FF0020DBE710B50446E006010E13
:1030C0001C2000F044F810BD10B50446E006010EC7
:1030D0001B2000F03CF810BD70B504460025BC2C48
:1030E00001DB012510E0622C01DB02250CE02A2C1B
:1030F00001DB032508E0142C01DB042504E00A2C85
:1031000001DB052500E0062529461A2000F01FF8FE
:1031100070BD70B504467D20C000844200DD0446C9
:10312000042C00DA042421467D20C000FDF7BFF9FD
:10313000401EC6B23146192000F009F80646254661
:10314000E10F4919C903080CFFF7C6FF70BD70B540
:1031500005460C46FFF7AEFED020FFF777FEFFF7DF
:10316000EDFE002803D0FFF7C7FE012070BD284602
:10317000FFF76CFEFFF7E2FE2046FFF767FEFFF762
:10318000DDFE002803D0FFF7B7FE0120EEE7FFF7D2
:10319000B3FE0020EAE7FFB581B005460E461F46A4
:1031A000FFF788FE6906080EFFF750FEFFF7C6FE20
:1031B000002804D0FFF7A0FE012005B0F0BD304686
:1031C000FFF744FEFFF7BAFE00240CE0385DFFF77E
:1031D0003DFEFFF7B3FE002803D0FFF78DFE012070
:1031E000EBE7601CC4B203988442EFDBFFF784FE78
:1031F0000020E2E770B500240CE0002506E0002086
:10320000E900074A89180855681CC5B2802DF6DB0D
:10321000601CC4B2082CF0DB00F0C4F870BD0000E4
:103220005C000020F7B500257F2801DC3F2900DD88
:10323000FEBD0B46CE17760FF618F6100727BE1BFD
:10324000F2B2CE17760FF618F610F6008E1BF4B217
:1032500007231E1B0123B340DDB2029B002B09D0C4
:10326000C3000A4E9B199B5C2B43C600074FF619FF
:10327000B35408E0C300054E9B199B5CAB43C600EA
:10328000024FF619B35400BFD2E700005C000020E3
:103290001CB50020009003460122114601903948D8
:1032A000FFF7EEFB0020009003460122022101906F
:1032B0003448FFF7E5FB0021AE2000F093F9002130
:1032C000D52000F08FF90021502000F08BF900216B
:1032D000A82000F087F900213F2000F083F90021A9
:1032E000D32000F07FF90021084600F07BF900218F
:1032F000402000F077F900218D2000F073F90021C3
:10330000142000F06FF90021202000F06BF900215B
:10331000022000F067F90021A12000F063F90021EC
:10332000C02000F05FF90021DA2000F05BF90021F5
:10333000122000F057F90021812000F053F90021FC
:10334000EF2000F04FF90021D92000F04BF90021C7
:10335000F12000F047F90021DB2000F043F90021C3
:10336000302000F03FF90021A42000F03BF90021BB
:10337000A62000F037F90021AF2000F033F9FFF765
:1033800039FF1CBD0040005010B50246012002E08C
:103390000346534318460B464C1EE1B2002BF7D1AF
:1033A00010BD000070B500241CE02146B031C8B249
:1033B000002100F017F90021084600F013F9002160
:1033C000102000F00FF9002508E0E900074A8918ED
:1033D000085D012100F006F9681CC5B2802DF4DB00
:1033E000601CC4B2082CE0DB70BD00005C00002053
:1033F000FFB585B00F4616461C4602972046E217D9
:10340000520F1218D210E3175B0F1B18DB10DB00F2
:103410000094E31A01D0012300E00023D2182146D2
:10342000E30F5B185B105A43D2B20192304620384A
:10343000C6B200254EE00C2C06D10C207043284962
:103440004018405D049012E0102C05D13001254950
:103450004018405D04900AE0182C06D124207043E7
:1034600021494018405D049001E009B0F0BD002002
:10347000039029E0802104980840002805D03946AF
:103480000E9A0598FFF7CEFE0AE00E98002801D1AB
:10349000012000E00020024639460598FFF7C2FEF1
:1034A00004984006000E0490781CC7B20298381A9F
:1034B000A04205D1029F0598401CC0B2059006E0CD
:1034C0000398401CC0B2039003980828D2DB00BFC9
:1034D000681CC5B201988542ADDB00BFC5E700009E
:1034E000D87600004C7B00003C810000FFB585B021
:1034F0001E460E9C00200490002540E0701B401EDC
:10350000C1B20A20FFF740FF014602900798FCF77E
:10351000C4FF0A210390FCF7C0FF0F46049800285F
:1035200017D1701EA84214DD002F10D10120039482
:103530000090E00F00194010684305994018C0B290
:103540002346202202900699FFF752FF15E0012042
:103550000490012003940090E00F0019401068438C
:1035600005994018C0B2029038463030C2B22346A6
:1035700006990298FFF73CFF00BF681CC5B2B54230
:10358000BCDB09B0F0BDF8B506460F4615461C4633
:1035900021E0E10F091949108022511AB14202DAE3
:1035A00000263819C7B24020001BB84204DA0020B8
:1035B00006460746FFF71EFE012000902A782346A4
:1035C00039463046FFF714FF2046E10F091849102D
:1035D0008919CEB26D1C28787E2802DC2878202834
:1035E000D7DAF8BD70B505460C46FFF70DFB78201D
:1035F00000F06EF9FFF7FCFA002C03D0402000F039
:1036000067F902E0002000F063F9FFF7F1FA2846BD
:1036100000F05EF9FFF7ECFAFFF70AFB70BD00005F
:1036200070B5632A3AD905290FD804688D004E1960
:103630001F25B540AC4304601446643C8D004D1911
:10364000AC4005682C43046028E00B2911D844687D
:103650008D1FAE00AE191F25B540AC434460144623
:10366000643C8D1FAE00AD19AC4045682C434460EE
:1036700014E00F2912D884680D460C3DAE00AE1937
:103680001F25B540AC4384601446643C0D460C3D98
:10369000AE00AD19AC4085682C4384608A4D441B54
:1036A000A84279D006DC894C0419002C07D0102CD4
:1036B00061D161E0102C70D0202CF9D1D0E0072925
:1036C00018D80524240724684E000325B540AC43D0
:1036D00005252D072C60632A01D9012400E014463A
:1036E0004D00AC4005252D072D682C4305252D07E1
:1036F0002C6040E00B291CD80524240764680D4683
:10370000083D6E000325B540AC4305252D076C60D0
:10371000632A01D9012400E014460D46083D6D00DE
:10372000AC4005252D076D682C4305252D076C60E1
:1037300021E00F291FD80524240764680D460C3D9D
:103740006E00AD1908350726AE40B44305252D0798
:103750006C60632A01D9012400E014460D460C3D3B
:103760006E00AD190835AC4005252D076D682C435A
:1037700005252D076C608EE00F2919D80524240734
:1037800025694E000324B440A54305242407256180
:10379000632A03D9012402E00BE046E014464D0001
:1037A000AC4005252D072D692C4305252D072C61DF
:1037B00071E0032918D805242407246A4E00032544
:1037C000B540AC4305252D072C62632A01D901249D
:1037D00000E014464D00AC4005252D072D6A2C4312
:1037E00005252D072C621FE007291DD80524240775
:1037F000246A0D1F6E00AD1908350726AE40B4438C
:1038000005252D072C62632A01D9012400E0144606
:103810000D1F6E00AD190835AC4005252D072D6A2A
:103820002C4305252D072C6235E0072917D80524E0
:103830002407256B4E000324B440A5430524240728
:103840002563632A01D9012400E014464D00AC40F1
:1038500005252D072D6B2C4305252D072C631AE01C
:10386000072917D8184CE03C24684E000325B540C2
:10387000AC43154DE03D2C60632A01D9012400E0E2
:1038800014464D00AC40104DE03D2D682C430E4DCC
:10389000E03D2C6000BF00BF052424020419246809
:1038A00001258D40AC4305252D0245192C600524CA
:1038B0002402041924681D468D402C4305252D0241
:1038C00045192C6070BD00002001005000FFFFAFC3
:1038D00070B5044600251CE001210F48FFF7C3F82E
:1038E00080202040002804D002210B48FFF77AF9FD
:1038F00003E002210848FFF7B6F801210648FFF768
:1039000071F901210448FFF7AEF86006040E681C47
:10391000C5B2082DE0DB70BD0040005010B506A018
:1039200000F0C8F800210648FFF756F908210548BD
:10393000FFF752F910BD00007379737469636B006F
:10394000004000500020005010B5012080070068A2
:1039500004210840002820D0080700680221084000
:1039600000280CD0184800680840002803D01748E9
:103970001749086020E01748154908601CE0124804
:10398000006802210840002803D01348104908604D
:1039900012E012480E4908600EE00120800700681E
:1039A000C007C00F002803D00C480949086003E095
:1039B0007D20000206490860094905480068FCF7B7
:1039C0006CFD0849086010BD00C00050001BB70026
:1039D00054000020808D5B00006CDC0200366E011C
:1039E00040420F005800002010B501208007806879
:1039F000012189050843090288600220030000F0C4
:103A000083F90604101C2834404C0120800700680C
:103A100004210840002801D003F00EFC03F0FAFB5B
:103A20003BE001208007006804210840002801D005
:103A300003F002FC03F028FC2FE00120800700685F
:103A400004210840002801D003F0F6FB03F008FC35
:103A500023E001208007006804210840002801D0ED
:103A600003F0EAFB03F0C2FB17E0012080070068C7
:103A700004210840002801D103F0CCFB03F0DCFB5B
:103A80000BE001208007006804210840002801D1D4
:103A900003F0C0FB03F00AFC00BF00BF002400E0FD
:103AA000641C03488442FBD3FFF74EFF10BD0000A7
:103AB000102700000FB410B5B4B0002437A8009050
:103AC000C92101A8009B369AFCF752FC0DE0204664
:103AD000621CD4B201AA115C0B4800F0B0F800BF20
:103AE000094800F09FF80028FAD1C82C04DA01A890
:103AF000FCF788FCA042EAD80020009034B010BC4B
:103B000008BC04B0184700000000015041680122C1
:103B1000520291434160704770B504460D463E48DD
:103B20002018002808D001210903401A0DD0401A9E
:103B300014D0401A24D11AE00120800780680121A6
:103B4000C9020843C90488601AE001208007806820
:103B50000121090308438904886011E001208007DE
:103B600080680121490308434904886008E0012076
:103B7000800780680121890308430904886000BF29
:103B800000BF2046FFF7C2FF6068012149030843D8
:103B90006060A068800B8003A060204A29681268DA
:103BA0001009FCF77AFC401EA1680843A060606819
:103BB0003F21890488436060287980046979C904B9
:103BC0000843A97989050843616808436060E06893
:103BD00080B2E060E8790004697A09060843E16888
:103BE0000843E06060680002000A60606068E97A8B
:103BF0000906084360606068094908406060287AE7
:103C00000001A97A89000843297B89030843616878
:103C10000843606070BD00000000FFAF540000204A
:103C2000EBBFFFFF01464868C007C00F01225040AC
:103C300070474168012252021143416070470160A0
:103C4000704700001FB50446012364220021144878
:103C5000FFF7E6FC0023652201211148FFF7E0FC95
:103C60000094002168460171417181710321C17185
:103C70000121017203214172002181720A21C17266
:103C80000021017369460748FFF746FF0122002122
:103C90005820FEF7DDFF0348FFF7CBFF1FBD0000F4
:103CA0000001005000000150F8B582B28BB204143C
:103CB0000D1410465843002126465E43371436043F
:103CC0008019794116466E433714360480197941BC
:103CD00026466E438919F8BDF8B5040C8BB226460A
:103CE00082B25E43104658430D0C370C3604002157
:103CF0008019164679416E43370C360480192646E2
:103D000079416E438919F8BD30B47446641E257834
:103D1000641CAB4204D3635D5B00E31830BC1847FE
:103D20001D46F8E74900CA020243100000D00420F3
:103D30004A0D01D001221043044A490D914201D19C
:103D400002210843012800D105207047FF07000029
:103D500010B5002819DB1A4A03231B02D218830866
:103D60009B00D2588307DC0EFF23A3409A438B07A6
:103D70001B0E8407E40EA3401A43114B03242402B4
:103D80001B198408A4001A5118E00E4A03071B0FE0
:103D9000083B9B089B00D2588307DC0EFF23A340FF
:103DA0009A438B071B0E8407E40EA3401A43054B6E
:103DB0000407240F083CA408A4001A5110BD0000F9
:103DC00000E100E01CED00E010B5002819DB1A4A04
:103DD00003231B02D21883089B00D2588307DC0EF2
:103DE000FF23A3409A438B071B0E8407E40EA340D6
:103DF0001A43114B032424021B198408A4001A51EE
:103E000018E00E4A03071B0F083B9B089B00D25883
:103E10008307DC0EFF23A3409A438B071B0E840706
:103E2000E40EA3401A43054B0407240F083CA408E2
:103E3000A4001A5110BD000000E100E01CED00E0FC
:103E4000F8B504464F1EC8000838211815461E460E
:103E5000086849683A4606239A4310D02A463346F2
:103E6000FCF7DAFF3A46D200083AA3181A687F1E18
:103E70005B68FCF77DFD06223B469343EED1022FA3
:103E800023D0042F11D0062F2FD12A463346FCF71A
:103E9000C3FFE36AA26AFCF76BFD2A463346FCF7D0
:103EA000BBFF636A226AFCF763FD2A463346FCF7D0
:103EB000B3FFE369A269FCF75BFD2A463346FCF7D2
:103EC000ABFF63692269FCF753FD2A463346FCF7D2
:103ED000A3FFE368A268FCF74BFD2A463346FCF7D4
:103EE0009BFF63682268FCF743FDF8BD10B5012213
:103EF000FDF73AFD10BD10B5FCF73AFD10BD0022EC
:103F000010B5134610461146FCF762FD10BD0000C7
:103F1000034A10B500201107FDF726FD10BD000073
:103F200001FDFFFF30380A2801D201207047002030
:103F300070470000F0B587B006460F46002504A87C
:103F400001F0DEF9002445E0A0003058A1007958C6
:103F5000401A0190002801DB019901E001994942D2
:103F60000846FDF7B9F98F21C9050090FDF7A2F8C1
:103F70000390A10004AA5058002103F065FA19D05B
:103F8000A00004AA11580398FDF794F87F21C905F1
:103F9000019003F031FB029002984000400801902C
:103FA0000F48416A019803F0FBFA12D20120A040A9
:103FB00005430EE00A48C169039803F06FFA05D380
:103FC0000748016A039803F0EBFA02D20120A040EF
:103FD0000543641C032CB7DB284607B0F0BD000086
:103FE000C08E0000F0B504464F008E488FB07F08A9
:103FF0000D460D91874228DB4042381820430CD0F3
:104000008948874203DC874218D1002C16D020460D
:104010002946FFF76BFF0FB0F0BD844A844B204662
:104020002946FCF7F9FE07460E46824A824B204697
:104030002946FCF7F1FE3A46334649E00120FDF7F8
:10404000DCF9FFF75CFF0FB0F0BD7C48874243DA34
:10405000F920800587420BDA20462946FFF762FEE9
:10406000042801D1FFF754FF204629460FB0F0BDC8
:1040700022462B4610462946FCF7CEFE064602464F
:104080006F480F460B4606217844FFF7D9FE3246AB
:104090003B46FCF7C1FE06906A48079132463B4614
:1040A00004217844FFF7CCFE32463B46FCF7B4FED1
:1040B00000225C4BFCF75CFC02460B460799069815
:1040C000FCF786FC22462B46FCF7A6FE22462B4632
:1040D000FCF74EFC0FB0F0BD2046524C6900490879
:1040E00000222346FCF75CFC0022D243FDF73CFC97
:1040F0000546024654480E460B4606217844FFF713
:104100009FFE2A463346FCF787FE06904F480791EC
:104110002A46334604217844FFF792FE2A46334666
:10412000FCF77AFE00222346FCF722FC059104905E
:104130002846314603F036F8089045480C46874239
:1041400019DB059B049A07990698FCF741FC024687
:104150000B4621460898FCF75FFE2346089AFCF7B9
:1041600007FC0122FDF700FC304A314BFCF70DFC47
:10417000304A314B4AE000273A460B460898FCF794
:10418000F7FB3A4623460A910E9010461946FCF773
:1041900043FE2A463346FCF703FC0A9B0E9AFCF7C3
:1041A00017FC05460E46059B049A07990698FCF7EE
:1041B0000FFC00910490012228463146FDF7D4FB04
:1041C0001A4A1B4BFCF7ECFB0E4605460122214622
:1041D0000898FDF7C9FB009B049AFCF71DFE2A46D0
:1041E0003346FCF7D2FB05460E46012238462146EF
:1041F000FDF7BAFB0F4C174F22463B46FCF7D0FBAE
:104200002A463346FCF7CCFB22463B46FCF7C8FB6C
:104210000D9A002A00DD5DE70122D20751400FB060
:10422000F0BD00000000F03F0000F07F075C143399
:1042300026A6913C182D4454FB21F93F0000E03F95
:10424000145B00002A5B0000A05A0000B65A000070
:104250003333EF3FFB21E93FF0B589B004460D460B
:104260004800069172494008884215DB714988422E
:1042700003DC884207D1002C05D020462946FFF7F1
:1042800035FE09B0F0BD6C48002D02DD6B4909B068
:10429000F0BD6B4909B0F0BD6A49884211DA6A493C
:1042A00088420BDA20462946FFF73CFD042801D15D
:1042B000FFF72EFE2046294609B0F0BD0026F64342
:1042C0005DE06D0061496D08884232DA60498842DC
:1042D00019DA0026012332469B0720462946FCF7BF
:1042E00047FB07460191012220462946FDF73CFB8A
:1042F0000022584BFCF749FB3A46019BFCF768FB50
:1043000004460D463BE001260022524B204629463A
:10431000FCF72EFB0746009100224E4B2046294613
:10432000FCF733FB3A46009BFCF752FB04460D4674
:1043300025E04949884219DA02260022474B2046E7
:104340002946FCF769FD0022424BFCF711FB0746AA
:1043500002910022414B20462946FCF716FB3A46C3
:10436000029BFCF735FB04460D4608E00326224677
:104370002B4600203A49FCF72BFB04460D4622460B
:104380002B4610461946FCF747FD07460B460246EA
:104390000191FCF741FD0246029032480B46039121
:1043A00006217844FFF74CFD3A46019BFCF734FDAB
:1043B00000902D48019105217844039B029AFFF754
:1043C0003FFD039B029AFCF727FD02460B4601992D
:1043D0000098002E0BDAFCF7CBFA22462B46FCF7AE
:1043E0001BFD22462B46FCF7DBFA09B0F0BDFCF7BB
:1043F000BFFA22462B46FCF70FFD1C4AF6007A4412
:1044000093191A685B68FCF7C0FA22462B46FCF742
:10441000BCFA174A7A4493191A685B68FCF7C0FA29
:10442000069A002AE1DA0122D207514009B0F0BD14
:10443000000010440000F07F182D4454FB21F93F88
:10444000FB21F9BF0000DC3F0000203E0000F33FED
:104450000000E63F0000F03F008003400000F83F0E
:104460000000F0BFFA580000BC5800005658000089
:1044700020580000F0B51FB4039A029D53006E420D
:104480002E439446F40F5B084A00574E52081C43D3
:104490008E46B44205D847420743FC0F1443B4424A
:1044A00005D92A466346FFF726FD05B0F0BD4F4EFD
:1044B00066442E430AD0CC0F6646B61702273E400C
:1044C000264304464A4F144304D00BE0FFF7C4FED2
:1044D00005B0F0BD002EFBD0012EF9D0022E32D057
:1044E000032E34D01C462C430BD03F4CA34216D194
:1044F000A2420AD1012189078B438A4311460393C3
:104500000DE0704600280FDB25E03A4D7D44002E7B
:104510000ED0012E10D0022E15D0032E17D0A2429D
:104520001DD17046002816DA3148334905B0F0BD78
:104530006968286805B0F0BD01226968D20728685B
:10454000514005B0F0BD38462C4905B0F0BD3846A5
:104550002B4905B0F0BD26482A4905B0F0BDD21A56
:1045600012153C2A02DD224D264C12E06346002B38
:1045700005DA3C23DA4202DA00252C4609E0039BE7
:10458000029AFCF725FA49004908FFF765FE05463F
:104590000C46002E12D0012E0DD01B4A1B4B022EB2
:1045A0002846214618D0FCF7F0F93A46134BFCF7A1
:1045B000ECF905B0F0BD0120C007444000221346CD
:1045C0002846214602F0C8FE02D10220FCF715FF62
:1045D0002846214605B0F0BDFCF7D7F93A46074B0F
:1045E000FCF7DEF905B0F0BD0000F07F000010C060
:1045F000182D4454C0570000FB21F9BFFB2109408E
:10460000FB2109C0FB21F93F075C143326A6A13C1E
:10461000F8B50446E078C02108400090E0788506AF
:10462000AD0E6078C007C00F002813D0EE102846EA
:10463000E917490F0918C910C900691A491CCFB2F6
:104640000C480068002804D00A4839460268304601
:10465000904700BF607808210840002808D005482E
:104660004068002804D0009A9011024A5168884797
:104670000020F8BD5C04002000B5034603E07D2067
:10468000C00000F007F81846591E8BB20028F6D17A
:1046900000BD00000146481E0E4A904201D901208B
:1046A00070470D48006848430C4A506100209061F3
:1046B0000120106100BF0948006901221204104066
:1046C0000028F8D00548006940084000034A1061FE
:1046D0000020E5E7FFFFFF005800002000E000E0B9
:1046E00038B50446002C09D02021684601702821E5
:1046F0004170302181703821C17004E0A32204216F
:104700006846FBF7A1FE6A460421034802F06CFCF0
:1047100002F026F838BD00009E0A00003EB50446AF
:10472000022168460170CA214170E321817009218C
:10473000C1706A460421682002F056FCA321684635
:10474000017040202040002807D0C02168464170F9
:10475000C8218170C221C17004E0A3216846417064
:104760008170C170FF2081302040002807D0C42113
:1047700068460171CC214171C621817104E0A321F9
:104780006846017141718171A3216846C17101724E
:1047900041726A460A21644802F026FCA007800F95
:1047A000002803D020206946087002E0D82069461E
:1047B00008706A4601215C480F3002F015FC202089
:1047C0002040002803D0012000F0B6F802E00020CD
:1047D00000F0B2F8FF208130204000281DD0FF20DB
:1047E00001302040002809D0B221684601708B2199
:1047F0004170B62181709B21C17008E0B0216846EC
:10480000017080214170B42181709021C1706A468D
:1048100004214548401F02F0E7FBE007C00F0028D5
:1048200024D0F820694608706A4601218B200001D7
:1048300002F0DAFBFA21072000F068FC072000F004
:104840002CFC012000F04FFC642000F035FDFF201F
:10485000F53000F043FDC821344800F0DDFB28208E
:1048600000F0F7FB0A2000F006FC08E0D8206946BB
:1048700008706A4601218B20000102F0B5FB02207E
:104880002040002803D0D9206946087002E0D820D3
:10489000694608706A460121254802F0A5FB0420FC
:1048A0002040002803D0012000F072F802E0002030
:1048B00000F06EF810202040002803D00120FFF700
:1048C0000FFF02E00020FFF70BFF082020431949EB
:1048D000488101F045FF00201649887340202040A0
:1048E000002803D00846807B801D8873FF2081301C
:1048F0002040002804D00F48807B801D0D4988731C
:1049000014202040002804D00A48807B1030094938
:104910008873A007800F002804D00648807B001D04
:104920000449887300203EBDA70A000009E3CA02BB
:104930003D0700005C0400203EB50446002C0DD06D
:104940000DA10A68486889680092029101906A4640
:1049500009219720C00002F047FB3EBD09A2116863
:10496000506892680292009101906A46092197204E
:10497000C00002F039FBF0E7B8AAB38DB4980D354A
:104980005D000000B8AAAAAAB088C3C5C70000008D
:1049900038B50446002C09D0C02168460170C221F8
:1049A0004170C4218170C621C17004E08B220421B2
:1049B0006846FBF749FD6A460421034802F014FBF0
:1049C00001F0CEFE38BD0000980A000010B5C823E3
:1049D000012292020249034801F04AFD10BD000085
:1049E000E88E0000F60B0000FFB58DB007461546B7
:1049F000169E0024002030806E49887B05A9179AF6
:104A000001F004FE002802D0601E11B0F0BD69481C
:104A1000408914210840002869D06946087D0006B5
:104A2000497D090408436946897D090208436946AE
:104A3000C97D084328606946087E0006497E09044E
:104A400008436946897E090208436946C97E0843CE
:104A500068606946087F0006497F09040843694683
:104A6000897F090208436946C97F0843A86008A9ED
:104A70000878000649780904084308A989780902DA
:104A8000084308A9C9780843E86020461030C4B23A
:104A9000286800140190686800140290A868001447
:104AA0000390E86800140490019840430299494338
:104AB000411803984043091804984043081800908F
:104AC0000F2109060098884204DB1121090600988D
:104AD000884205DD01F044FE00203080401E94E74E
:104AE0000020305EFF2101310843308000BF314893
:104AF000408940210840002824D005A8005D00021C
:104B000005AA611C515C084301B20E98018005A9F9
:104B1000A01C085C0002E11C515C084301B20E9825
:104B2000418005A9201D085C0002611D515C0843FD
:104B300001B20E988180A01DC4B20020305E082111
:104B4000084330801B484089FF21813108400028FC
:104B500021D005A8005D000205AA611C515C084334
:104B600000B2388005A9A01C085C0002E11C515C61
:104B7000084300B2788005A9201D085C0002611D71
:104B8000515C084300B2B880A01DC4B20020305E62
:104B90007021084330800748807A8007800F002802
:104BA00003D005A90819FFF733FD109801F0D2F8DA
:104BB00000202AE75C040020F1B592B001A801F0C2
:104BC0009BFA684680880021420CC9031143C00348
:104BD000039102904F48007A8007010F12984058C5
:104BE00007904C48008904210840002802D007980B
:104BF000404207904748007AC006800F8100129813
:104C0000405808904348008920210840002802D0DD
:104C10000898404208903F48007A0006800F8100C3
:104C20001298405809903B480089FF210131084003
:104C3000002802D00998404209900798C117039DA7
:104C4000029C22462B4610911190FBF741FB8900F4
:104C5000800F084307900898C117039D029C2646C1
:104C60002F4632463B460E910F90FBF731FB8900F1
:104C7000800F084308900998C117039D029C2246A3
:104C80002B460A950B940C910D90FBF721FB8900A4
:104C9000800F084309900798010E68460174079831
:104CA0000002010E6846417407980004010E684630
:104CB00081740798C1B26846C1740898010E6846AD
:104CC000017508980002010E6846417508980004B5
:104CD000010E684681750898C1B26846C175099889
:104CE000010E6846017609980002010E6846417679
:104CF00009980004010E684681760998C1B2684699
:104D0000C17604AA0C21A520800002F06DF913B031
:104D1000F0BD00005C04002030B585B0044616A24A
:104D200007CA02AB07C3C82C03DD0020C04305B08F
:104D300030BD2146C820FBF7BAFB401E85B22812C1
:104D4000694608704D706A4602210E4802F04CF91F
:104D5000002802D00020C043E9E702AA0C210A483B
:104D600002F042F9002802D00020C043DFE70748E4
:104D700084810020DBE70000FEF2ABC4AAF1DFDF94
:104D8000BBAFDFDF16020000C10A00005C04002098
:104D90001FB504464D48007A8007000F2058019047
:104DA0004A48008904210840002802D00198404266
:104DB00001904648007AC006800F8000205802907B
:104DC0004248008920210840002802D00298404231
:104DD00002903E48007A0006800F80002058039021
:104DE0003A480089FF2101310840002802D0039889
:104DF0004042039036490198FEF756FF8900800F24
:104E00000843019032490298FEF74EFF8900800F57
:104E1000084302902E490398FEF746FF8900800F51
:104E2000084303900198010E684601700198000242
:104E3000010E6846417001980004010E68468170B9
:104E40000198C1B26846C1706A4604213D20000144
:104E500002F0CAF8002803D00020C04304B010BDFF
:104E60000298010E6846017002980002010E684621
:104E7000417002980004010E684681700298C1B228
:104E80006846C1706A460421F520800002F0ACF843
:104E9000002802D00020C043E0E70398010E6846D6
:104EA000017003980002010E6846417003980004E7
:104EB000010E684681700398C1B26846C1706A46A7
:104EC00004217B20C00002F08FF8C7E75C040020BB
:104ED00009E3CA0210B586B0044649A000680390F1
:104EE00048A00068029048A00068019047A00068B0
:104EF0000090A007800F03A9095C68460175E006D1
:104F0000800F03A9095C684641752006800F03A93C
:104F1000095C68468175A007800F02A9095C684694
:104F20000174E006800F02A9095C684641742006FE
:104F3000800F02A9095C6846817405AA03213448E0
:104F400002F052F8002803D00020C04306B010BD84
:104F500004AA03212E48001D02F046F8002802D0C2
:104F60000020C043F2E701980590009804900420C7
:104F7000204000280AD06846017D01200143684690
:104F80000175007C012108436946087420202040F7
:104F900000280AD06846417D0120014368464175DA
:104FA000407C0121084369464874FF2001302040BD
:104FB00000280AD06846817D01200143684681753A
:104FC000807C012108436946887405AA03211120C9
:104FD000800102F009F8002802D00020C043B5E7A4
:104FE00004AA03210A480B3001F0FEFF002802D07A
:104FF0000020C043AAE7074804810020A6E700007C
:105000004CCD6C000CC92C00365676002646660046
:10501000260400005C040020F8B506460D467D21FC
:10502000C9003046FBF743FA68430446210E684640
:1050300001702002010E684641702004010E68468E
:105040008170C4706A460421FF205D3001F0CCFFFE
:10505000F8BD38B5044605212046FBF728FA84B28E
:1050600021126846017044706A460221FF205B30BD
:1050700001F0BAFF38BD38B5044605212046FBF7DC
:1050800016FA84B221126846017044706A46022101
:10509000FF20593001F0A8FF38BD38B50446002084
:1050A0000090E007C00F002804D06946087830213E
:1050B0000843009002202040002804D06946087868
:1050C0000C210843009004202040002804D06946A9
:1050D00008780321084300906A460121FF204930E7
:1050E00001F082FF38BD38B50446012C01DA0124F5
:1050F00002E0042C00DD0424601EC0B200906A4669
:105100000121FF20503001F06FFF38BDF0B585B0B0
:1051100006460F467007400F002803D01920800173
:10512000874203DD0020C04305B0F0BD3846FCF7E0
:10513000DBF85C490090FBF7BDFF019002A800F08E
:10514000B3FF6846007A022806D0042816D0082843
:1051500026D0102848D135E08D21C905019802F0EC
:10516000C7F90090FCF77CF884B24F49019802F02F
:10517000BFF90090FCF774F885B238E023214906A6
:10518000019802F0B5F90090FCF76AF884B247493B
:10519000019802F0ADF90090FCF762F885B226E0C4
:1051A0008B21C905019802F0A3F90090FCF758F88B
:1051B00084B23F49019802F09BF90090FCF750F847
:1051C00085B214E045210906019802F091F900909A
:1051D000FCF746F884B23749019802F089F900904B
:1051E000FCF73EF885B202E00020C0439CE700BF18
:1051F000211268460173447329128173C573F00745
:10520000C00F002816D003AA0221FF20D53001F0DC
:10521000EBFE002802D00020C04385E703AA02323B
:105220000221FF20253001F0DFFE002802D00020FF
:10523000C04379E702203040002816D003AA02219B
:10524000FF20D93001F0D0FE002802D00020C0435A
:105250006AE703AA02320221FF20293001F0C4FECE
:10526000002802D00020C0435EE704203040002820
:1052700016D003AA0221FF20DD3001F0B5FE002880
:1052800002D00020C0434FE703AA02320221FF20D0
:105290002D3001F0A9FE002802D00020C04343E7D2
:1052A000002041E700004843000040460000C045A0
:1052B000000040450000C04438B505460521284699
:1052C000FBF7F5F884B221126846017044706A4613
:1052D0000221FF20DF3001F087FE38BD38B50546DA
:1052E00005212846FBF7E3F884B2211268460170D5
:1052F00044706A460221FF20DB3001F075FE38BDA4
:105300007CB5054629494968087801AB04220D217E
:10531000FDF79CFE002801D007207CBD684600797F
:10532000E0210840C1106846C079302210400011C9
:105330000143684601704079E0210840C110684689
:10534000C0790C221040801001436846417080797A
:10535000E0210840C1106846C0798007800F0143F2
:105360006846817000241CE06846005D002802D178
:10537000A100685013E00E48A100685006E0A100AB
:1053800068580C4902F0B4F8A10068506846005D06
:10539000401EC0B2694608550028F0D100BF601C0D
:1053A000C4B2032CE0DB0020B7E700001C000020A3
:1053B0007B14AE3E1D5A843FF0B58BB005460C46BB
:1053C0001746012108A8017000214170FE480068BD
:1053D000817CFD484068007808AB02220590FDF70B
:1053E000DAFE002803D00020C0430BB0F0BDC82077
:1053F000FFF742F9002008A90870F3480068C17B54
:10540000F1484068007808AB01220590FDF7C3FE23
:10541000002802D00020C043E7E7EB48006841794C
:10542000E9484068007808AB01220590FDF7B3FE1B
:10543000002802D00020C043D7E7E3480068817C01
:10544000E1484068007808AB01220590FDF7A3FE13
:10545000002802D00020C043C7E7DB480068C17DB8
:10546000D9484068007808AB01220590FDF793FE0B
:10547000002802D00020C043B7E7D3480068017974
:10548000D1484068007808AB01220590FDF783FE03
:10549000002802D00020C043A7E70C2008A908700C
:1054A000C94800680179C8484068007808AB012203
:1054B0000590FDF770FE002802D00020C04394E75D
:1054C0000F20FFF7D9F8C048806A407A08A9087011
:1054D000BD4800688178BC484068007808AB01226C
:1054E0000590FDF758FE002802D00020C0437CE75D
:1054F000B548806A007A08A90870B3480068417806
:10550000B1484068007808AB01220590FDF743FEE2
:10551000002802D00020C04367E7002F07D0AA4828
:10552000806A807AE021084308A9087004E0A64850
:10553000806A807A08A90870A34800688179A24827
:105540004068007808AB01220590FDF724FE002892
:1055500002D00020C04348E7002F07D09A48806A55
:10556000C07AE021084308A9087003E09748C07A90
:1055700008A9087094480068C17993484068007889
:1055800008AB01220590FDF706FE002802D000209E
:10559000C0432AE7002F02D0C820FFF76DF8402053
:1055A00008A9087088480068017987484068007831
:1055B00008AB01220590FDF7EEFD002802D0002087
:1055C000C04312E7782008A908707F480068417935
:1055D0007D484068007808AB01220590FDF7DBFDAF
:1055E000002802D00020C043FFE678498889FFF7F1
:1055F00043F8002008A90870734800684179724890
:105600004068007808AB01220590FDF7C4FD002832
:1056100002D00020C043E8E66B480068817A6A48FF
:105620004068007808AB02220590FDF70FFD0028C6
:1056300002D00020C043D8E608A9087800024978C3
:10564000084306900C210698FAF731FFC6B20020F5
:10565000A86068602860A0606060206007906BE0D0
:1056600059480068C17A58484068007808AB0C2255
:105670000190FDF7EBFC002802D00020C043B4E607
:1056800008A80078010208A84078014309B26846DA
:10569000018208A88078010208A8C078014309B2F5
:1056A0006846418208A80079010208A840790143B0
:1056B00009B2684681821022825E216888182060C3
:1056C00068461222825E616888186060684614220B
:1056D000825EA1688818A06008A88079010208A8E5
:1056E000C079014309B26846018108A8007A010225
:1056F00008A8407A014309B26846418108A8807A27
:10570000010208A8C07A014309B2684681810822D3
:10571000825E29688818286068460A22825E696865
:105720008818686068460C22825EA9688818A8609C
:105730000798401CC0B207900798B04290DB2348FE
:10574000006803902868C117020C09041143000483
:10575000019100900023039AFAF7D2FD324600230C
:1057600005910490FAF7CCFD286018480068039072
:105770006868C117020C09041143000401910090EC
:105780000023039AFAF7BCFD3246002305910490EA
:10579000FAF7B6FD68600D4800680390A868C11765
:1057A000020C090411430004019100900023039AA4
:1057B000FAF7A6FD3246002305910490FAF7A0FD02
:1057C000A8600248406803E01C000020C08E000072
:1057D00003902068C117020C0904114300040191D1
:1057E00000900023039AFAF78BFD324600230591BF
:1057F0000490FAF785FD20601D48406803906068BA
:10580000C117020C09041143000401910090002308
:10581000039AFAF775FD3246002305910490FAF7D2
:105820006FFD6060124840680390A068C117020CC9
:10583000090411430004019100900023039AFAF730
:105840005FFD3246002305910490FAF759FDA060F0
:10585000A068002805DD01210904A068401AA060A5
:1058600004E001210904A0684018A0600020BCE504
:10587000C08E0000F0B587B006460F4600253E48B2
:105880004068007806AB03220D210290FDF7DEFB95
:10589000002802D0072007B0F0BD6846007EC10690
:1058A000C90E68460176407EC106C90E684641763B
:1058B000807EC106C90E68468176002458E0A000AB
:1058C0003058A1007958401A0290002801DB029953
:1058D00001E0029949420846FBF7FEFC8F21C90509
:1058E0000190FBF7E7FB049006A8005D00282FD08D
:1058F00022490868FBF7F8FC014602902048FBF7B4
:10590000D9FB059004E01F49059801F0F1FD0590D1
:1059100006A8005D401EC0B206A908550028F2D1B5
:1059200005990498FBF7C6FB7F21C905029001F099
:1059300063FE039003984000400802900F4881697D
:10594000029801F02DFE12D20120A04005430EE086
:105950000A480169049801F0A1FD05D3074841698F
:10596000049801F01DFE02D20120A0400543641CF2
:10597000032CA4DB28468EE71C000020C08E00000C
:1059800000B04C4554E3853F10B50446204600F076
:105990000FF80346E01C00F00BF8C000184383B278
:1059A000A01D00F005F88001184383B2184610BD11
:1059B000014600228A56002A01DD00201EE0002256
:1059C0008A56002A01DA042018E001228A56002AA9
:1059D00001DD012012E001228A56002A01DA0520A9
:1059E0000CE002228A56002A01DD022006E0022293
:1059F0008A56002A01DA062000E0072070470000DE
:105A000008B5FDF7F1FFFDF76DF9FDF741FCE12069
:105A10004002FEF717F9A9A0FEF74CF8FDF7BCFA13
:105A2000002802D0A7A0FEF745F80BE00C23AAA29D
:105A300030211020FDF7A7FDFDF7B4FCFF20F53065
:105A4000FEF71AFE00F0D8FA0028EFD10021A64890
:105A5000FDF7C2F80821A548FDF7BEF8FF202D305C
:105A6000FEF70AFE0021A048FDF7B6F808219F487E
:105A7000FDF7B2F8FF202D30FEF7FEFD00219A4819
:105A8000FDF7AAF808219948FDF7A6F8984800689C
:105A90008408601E9749884201D901200CE0601EED
:105AA000954948610321081FFEF752F900209249E9
:105AB0008861072008610020002802D08FA0FDF730
:105AC000F9FFFDF797FB0C237CA200210846FDF7A8
:105AD0005AFD0C238DA20E210020FDF754FD0C234E
